:020000040800F2
:10000000981500205103000855A10008457A000802
:1000100051A10008B517000899B9000800000000B8
:1000200000000000000000000000000065A20008C1
:10003000A919000800000000C5A10008BDA2000821
:100040006B0300086B0300086B0300086B030008D8
:100050006B0300086B0300086B0300086B030008C8
:100060006B0300086B0300086B030008B917000856
:10007000C9170008D9170008E9170008F917000880
:1000800009180008191800086B0300086B03000822
:100090006B0300086B0300086B0300086B03000888
:1000A0006B0300086B03000851A300086B030008F2
:1000B0006B0300086B0300086B030008497A000813
:1000C0006B0300086B0300086B0300086B03000858
:1000D0006B03000869B9000879B9000889B90008FC
:1000E0006B0300086B0300086B0300086B03000838
:1000F0006B0300086B0300086B0300086B03000828
:100100006B0300086B03000861A300086B03000881
:100110007DAE00086B03000871A300086B030008A4
:10012000391800084918000859180008691800080B
:10013000791800086B0300086B0300086B030008C4
:100140006B0300086B0300086B0300086B030008D7
:100150006B0300086B0300086B0300086B030008C7
:100160006B0300086B0300086B0300086B030008B7
:100170006B0300086B0300086B0300086B030008A7
:100180006B0300086B0300086B0300086B03000897
:100190006B030008000000006B0300086B030008FD
:1001A0006B0300086B0300086B0300086B03000877
:1001B0006B0300086B0300086B0300086B03000867
:1001C000291800086B0300086B0300086B03000884
:1001D0006B0300086B03000800F002F800F0A8F8B9
:1001E00014A696E8000CB244B344DA4501D100F0FD
:1001F0009FF8BAE80F000FA696E83000A5EB0405BB
:1002000004EB0607AAEB0704A7F101074FEA15154F
:100210004FEA3414A4F10104AC4201D300F088F891
:1002200013F0010F18BFFB1A43F0010300F001F8AF
:10023000DBE71847B8DA0000D8DA0000103A24BF2C
:1002400078C878C1FAD8520724BF30C830C144BF3B
:1002500004680C6070470000704700000023002411
:1002600000250026103A28BF78C1FBD8520728BFC6
:1002700030C148BF0B6070476E2900F0E7817029DC
:1002800000F02B8366290DF0868465290DF08384A8
:1002900067290DF0808461290DF07F8403681B0AB3
:1002A00028BF41F08001692900F09481642900F0A1
:1002B0009181752900F08E816F2900F0B98278292B
:1002C00000F0F782E92900F05382E42900F050821F
:1002D000F52900F04D82EF2900F0B682F82900F0F0
:1002E000F6820368DB0928BF41F08001632901F031
:1002F0000380732901F00880E32901F01380F329BA
:1003000001F01880002070471FB50DF032FC01F09D
:100310005FF80400002000210DF098F8401C606098
:10032000002000210DF0A8F8E0601FBD10B510BD41
:1003300001F028F81146FFF7E7FF0CF037FB01F05A
:10034000FDF803B4FFF7F2FF03BC01F03FF9000032
:100350000948804709480047FEE7FEE7FEE7FEE759
:10036000FEE7FEE7FEE7FEE7FEE7FEE70448054995
:10037000054A064B704700003DA30008D90100085C
:10038000980F002098150020981100209811002047
:1003900053EA020C00F069802DE9F04B4FF00006A3
:1003A000002B1FBFB3FA83F503FA05F424FA05F610
:1003B0005E4012BF1643B2FA82F502FA05F4C5F1A7
:1003C00020051EBF22FA05FC44EA0C04203556EA3B
:1003D000044C4FEA144418BF641C4FF000084FF05F
:1003E0000009904271EB030C39D3002919BFB1FA0F
:1003F00081F701FA07F6B0FA80F700FA07F6C7F1BD
:1004000020071EBF20FA07FC46EA0C062037B6FB81
:10041000F4FCA7EB0507103F07F01F0BCBF12006FC
:100420002CFA06F60CFA0BFB44BFB3460026202F2D
:10043000A4BF5E464FF0000B5BEA060C08BF4FF00E
:10044000010B19EB0B0948EB0608ABFB027C06FB22
:1004500002CC0BFB03CCC01B71EB0C01C1E70B46BC
:10046000024641464846BDE8F08B13B5084318BF25
:100470004FF0FF300146AFF30080BDE81C407047ED
:100480007CB51D4616460C00009007D04142A142A3
:1004900002D32044401E01E04FF0FF30064B7B4466
:1004A0002A4669460190304600F0E9F8002C02D057
:1004B000009A002111707CBD030200004FF0000281
:1004C00000B5134694469646203922BFA0E80C504A
:1004D000A0E80C50B1F12001BFF4F7AF090728BF25
:1004E000A0E80C5048BF0CC05DF804EB890028BFA1
:1004F00040F8042B08BF704748BF20F8022B11F0CA
:10050000804F18BF00F8012B704770477047704745
:1005100070B5044685690068C10601D5302600E043
:100520002026C00707D070BDD4E90121304690478E
:10053000206A401C20626D1EF6D570BD70B5044661
:1005400085690078C00707D170BDD4E9012120205A
:100550009047206A401C20626D1EF6D570BD096868
:100560004A0501D540B27047C905FCD500B27047B5
:1005700009684A0501D5C0B27047C905FCD580B2EB
:10058000704770B50C460546012A05D028788006CC
:1005900000D5EA69002302E0012305E05B1C9342D9
:1005A00002D2E05C0028F9D1A869E618C01AA86157
:1005B000286A184428622846FFF7AAFF04E0D5E914
:1005C000012114F8010B9047B442F8D32846FFF7F5
:1005D000B5FF70BD2DE9F04106460024106875296D
:1005E000314616A510D0FFF7BAFF002802DA4042C4
:1005F00013A507E031688A0701D512A502E0490773
:1006000004D511A5012401E0FFF7B2FF00210A2261
:1006100006F1240709E0B0FBF2FCB0FBF2F302FBA9
:100620001C00303078541846491C0028F3D123466A
:100630002A463046BDE8F04100F06FBA00000000E5
:100640002D0000002B00000020000000116802684F
:10065000006A530501D508700AE0D30501D508806A
:1006600006E0130603D5C217C1E9000200E00860E6
:100670000120704701694A1C02610878704700B583
:100680008FB0CDE901310021059105497944CDE9CB
:1006900003101146684600F02BF90FB000BD0000B2
:1006A000E5FFFFFFD1E900239A4202D2531C0B6001
:1006B000107070472DE9FF5F15468A460446DFF843
:1006C000AC80F8440027D8E900103E46CDE9001080
:1006D00010E03AF816106A4602A800F02FFE411CFE
:1006E00007D02178890603D5E269391891420DD8DF
:1006F0000744761C2078800602D5E069B84205DD03
:10070000AE42E6DB3AF816000028E2D1A069C01B31
:10071000A0612046FFF7FCFED8E90010CDE90010EB
:10072000002017E03AF818106A4602A800F006FE0A
:10073000B0F1FF3F81460BD000250DF1080B05E01D
:10074000D4E901211BF8050090476D1C4D45F7D3F6
:1007500008F10100B0428046E4DB206A38442062A0
:100760002046FFF7EBFEBDE8FF9F0000DAD4000053
:100770002DE9F0418046D21D22F007020025D2E982
:100780000002F52915A614D0011E72F1000106DA47
:100790000023D0EB030063EB020211A608E0D8F8B7
:1007A00000108B0701D50FA602E0490701D50EA660
:1007B00001251146002408F1240704E000F068F93F
:1007C00030323A55641C50EA0102F7D12B463246CA
:1007D00021464046BDE8F04100F09FB9000000000E
:1007E0002D0000002B0000002000000030B400218C
:1007F00000F1240408E002F00705D208303542EA8F
:100800004372DB086554491C52EA0305F3D10468BE
:10081000002310A2250708D504F020040C4304D0BF
:10082000C46901230CA2641EC46130BC00F075B918
:1008300010B5044621461068FFF79AFE024620468E
:10084000BDE810400023D1E7D21D22F00701D1E915
:100850000023CBE70000000030000000F0B40D469C
:100860000188090502D5214C7C4402E01F4C7C44E0
:100870000E34002100F1240608E002F00F071209EF
:10088000E75D42EA03721B097754491C52EA0307E9
:10089000F3D102780023120704D5702D06D009B1D8
:1008A000022311342246F0BC00F037B90123103482
:1008B000F8E770B504460D4621461068FFF758FE6C
:1008C000024629462046BDE870400023C6E7D21DF7
:1008D00022F00703D3E90023C0E70368126843F05E
:1008E000200303600823C3610023B7E73CD3000063
:1008F0002DE9F05F894604464FF0000ADFF874B135
:10090000FB44C0F820A02046E1688847002874D046
:10091000252806D0D4E901219047206A401C206296
:10092000F1E700265F462046E16888472028054613
:1009300007DB312D05D2781910F8200C08B10643D9
:10094000F1E7B00701D526F00406C4F81CA0002783
:10095000C4F818A02A2D09D028460CF06FFD38B332
:1009600004EB8708303DC8F8185019E059F8041B0B
:10097000204604EB87029161E1688847012F054614
:1009800018D1E069002820DA26F020061DE0D8F80A
:10099000180000EB800005EB40003038C8F8180064
:1009A0002046E168884705460CF048FD0028EED156
:1009B000012F0AD02E2D08D12046E16888477F1CE0
:1009C0000546022F46F02006C4DBA069002803DAA2
:1009D000404246F00106A061F00701D026F0100663
:1009E0006C2D0BD0682D09D04C2D39D06A2D35D007
:1009F000742D35D07A2D33D016E038E0E1682F46DB
:100A000020468847B842054609D16C2F26D04FF4BE
:100A10008060E168064320468847054604E06C2F65
:100A20001AD04FF4807006430DB3A5F14100192888
:100A300002D8203546F400664A46294620462660FC
:100A40004E46FFF719FC80B101280BD0F61D26F0A9
:100A5000070000F1080956E74020E4E78020D8E7C6
:100A60000020D6E706F104094DE7284652E7206A40
:100A7000BDE8F09FCCD20000004870471000002075
:100A800010B500F0A5FC001D10BD00BFC1C90000DD
:100A900030B5B0F10A0271F100034FEA900E4EEA50
:100AA000817EB0EB0E0061EB91014FEA101E4EEA21
:100AB000017E10EB0E0041EB11114FEA102E4EEAB1
:100AC000016E10EB0E0041EB11214FEA104E4EEA81
:100AD000014E10EB0E0041EB1141401841F10001B5
:100AE0004FEAD00040EA41704FEAD1014FEA810459
:100AF00044EA907410EB800544EB01046D1944EB5B
:100B00000404521BA3414FF0000348BF0A3200D532
:100B100030BD401C41F1000130BD2DE9F0470D46CC
:100B200099469246044600F124080168880604D5D7
:100B3000E06921F01001216000E00120A84201DD00
:100B4000471B00E00027A1697A1902EB0900081A87
:100B5000A0612078C00602D42046FFF7D9FC002609
:100B600008E0D4E901211AF806009047206A401CE9
:100B7000761C20624E45F4DB2078C0060AD520465C
:100B8000FFF7C6FC06E0D4E9012130209047206A37
:100B9000401C2062381EA7F10107F4DC07E0D4E90D
:100BA000012118F805009047206A401C2062281E89
:100BB000A5F10105F3DC2046FFF7C0FC2078000614
:100BC00002D50220BDE8F0870120FBE72DE9FF4FA9
:100BD0000C461E464FF0FF378BB0D2E90001DDF81E
:100BE00060800A908A46C1F30A5505B93D46002146
:100BF00008464FF00000BAF1000F00F4400005DA9B
:100C000000EB80004FF4400101EA50004FEA905998
:100C1000B9F1010F00DDB9460A9850EA4A000ED03A
:100C200044F61050A5F2FF3545432F14B8F1000FDC
:100C30001ED07542291E1EDDC9F100021CE0B8F16C
:100C4000010F4FF0000001D0302103E0F24305E036
:100C50002154401CB042FBDB3046002200212154CD
:100C60000B99C1F80880C1E900200FB0BDE8F08FF2
:100C7000BD1B6D1CDEE74A4600DA694206A800F09B
:100C8000EBFB06AB93E8070003AB83E80700504695
:100C90000A990BF0F3FF8DE80700A0F500501F380C
:100CA00000900398002D0ADD42F21F014A460844D5
:100CB000002303A9039068460CF05CFA09E0A0F554
:100CC00000504A461F38002303A9039068460CF0E1
:100CD00066FA8DE807000004000C03D04FF0FF30E7
:100CE000410800E01046B8F1000F03D00022009246
:100CF00015461EE0751E05D4FFF7CAFE3032625558
:100D00006D1EF9D5B3460122084302D000227F1C94
:100D100004E02078302801D100227F1E002A0997A4
:100D200084D01DE0112D07DAFFF7B2FE3032625594
:100D30006D1C50EA0102F5D1084302D00098C8B1F9
:100D40000EE00021681E05E0235C625C63542254BF
:100D5000401E491C8142F7DBAB46A81B401E099090
:100D6000002004F80B000B98099AC0F80880C0E92D
:100D7000002B7AE711264FF0000857E72DE9F04FD6
:100D800088460446D21D22F0070191B0D1E9000146
:100D9000CDE90A010CF03AFB02460B98C00F01D0D6
:100DA0002D2007E02068810701D52B2002E02021BB
:100DB00001EAC000032A099001D0072A05DB034697
:100DC0004146204600F008FB0BE12078800601D563
:100DD000E06900E00620B8F1650F814606D0B8F161
:100DE000660F18D0B8F1670F70D131E00020B9F16B
:100DF000110F009001DB112301E009F101030AAAA0
:100E000001A90CA8FFF7E2FEDDE90C70002609F14C
:100E10000105834647E001204B4600904FF0004714
:100E20000AAA01A90CA8FFF7D1FEDDE90DB00C99C3
:100E30005D46002610B909F101000D18B9EB050057
:100E400003D4C0F1FF3609F10105A5EB09002BE041
:100E5000B9F1010F01DA4FF001090020B9F1110FCA
:100E60000090484601DD112300E003460AAA01A9CB
:100E70000CA8FFF7ABFEDDE90C704D46002683465B
:100E8000207800070AD4AB4500DA5D4601A8012DA1
:100E900004DD411911F8011C302907D04F4502DA51
:100EA00017F1040F04DA012082460FE06D1EEEE711
:100EB000002F02DCED1B3E4403E0781CA84200DD5D
:100EC0007D1CB81B00F1010A4FF000472078000795
:100ED00003D4AA4501DB4FF0FF3A0021B7F1004FE0
:100EE0000DF143088DF8431024D002202B23002F4E
:100EF00001DA7F422D230A21021EA0F1010000DC4D
:100F00005FB197FBF1FC97FBF1F201FB1C7C1746EC
:100F10000CF1300C08F801CDEEE7A8F101000370E8
:100F20002188090501D5452100E06521A0F10108CE
:100F300000F8011C09980FA9A1EB0807FF1D00B1DB
:100F40000120411901EBEA70A1693844081A401EDA
:100F5000A0612078C00602D42046FFF7D9FA09988C
:100F600028B1D4E901219047206A401C20622078F2
:100F7000C00622D52046FFF7CBFA1EE0002E04DB88
:100F8000B34502DD01A8805D00E03020D4E90121F5
:100F90009047206A401C2062761CAAF101005FEA9B
:100FA000000A0AD100F014FAC0680168405CD4E974
:100FB00001219047206A401C2062281EA5F10105EE
:100FC000DCDC07E0D4E9012118F8010B9047206A26
:100FD000401C2062381EA7F10107F3DC2046FFF712
:100FE000ADFA032011B041E62DE9F04F04460D465D
:100FF000D21D22F0070089B0D0E900974846394653
:101000000CF004FA0246F80F01D02D2307E0206807
:10101000810701D52B2302E0202101EAC0038DF8CE
:1010200020300BB1012000E00020032A824601D0CD
:10103000072A04DB2946204600F0CEF93FE120785C
:10104000800601D40D2500E0E569C7F30A560D2D91
:1010500049DA00214FEA175B08464FF00000002FE5
:1010600000F4400007DA00EB80004FF4400100EB91
:10107000D07001EA60008115012901DD4FF0FF31D8
:1010800000224FEA850CBCF1180F06D31346ACF1D1
:1010900018004FF08052C24003E04FF4801323FA4F
:1010A0000CF30CF10C0CBCF1200F04D3ACF1200CB0
:1010B00009FA0CF001E007FA0CF000294FF00048A3
:1010C00001DD18B90FE00ED140450CD319EB020930
:1010D0005F4121B9404502D19F4329EA0209BBEB98
:1010E000175F00D0761C2088000502D57B48784425
:1010F00002E07A487844193808AA302302F80A3006
:10110000037C0AF10101002E0AF1020A53546A46D7
:1011100002DC4FF0300101E04FF031014FF00108E7
:101120008DF8001002D0A6F2FF3603E059EA47011D
:1011300000D06B4E002D02DC2178090704D54FF05A
:1011400002082E218DF80110C44600210BE0C7F3E0
:1011500003433F01C35C491C6D1E02F8083005299A
:1011600008F1010801DA002DF1DC00210CE000EBB0
:101170001973491C1B786D1E082902F808304FEAC4
:10118000091908F1010801DA002DF0DC21688B064D
:1011900002D516E0A8F10108E04505DD02EB0803E1
:1011A00013F8013C302BF5D0B8F1000F09DD02EB4C
:1011B000080313F8013C2E2B03D1090701D4A8F131
:1011C0000108002D05DD3E2102F808106D1E08F112
:1011D0000108407C002E02F8080008F1010804DA3A
:1011E0002D20764202F8080002E02B2002F80800C9
:1011F0000A214FF47A70864208F101080BDB96FB56
:10120000F0F3303302F8083096FBF0F308F10108F0
:1012100000FB136601E0642E0CDB642096FBF0F308
:10122000303302F8083096FBF0F308F1010800FBB8
:10123000136601E00A2E06DB96FBF1F0303002F86F
:10124000080008F1010896FBF1F001FB1060303056
:1012500002F80800A16908F1010808EB050202EB99
:101260000A00081AA0612078C00602D42046FFF7C1
:101270004FF9216A08AE01EB0A00206204E0D4E9CC
:10128000012116F8010B9047BAF1010AF7D2207834
:10129000C00602D52046FFF73BF96E4609E016F876
:1012A000010B3E280FD0D4E901219047206A401C51
:1012B0002062B8F10108F2D22046FFF73FF909B0E9
:1012C0000320BDE8F08F206A2844206203E0D4E9BF
:1012D0000121302090476D1EEBD3F8E702CB0000D0
:1012E00002FCFFFF10B5436913B1AFF3008001E0CA
:1012F000FFF747F9012010BD127800F124010A70B0
:1013000000224A700122EDE711684FF0FF32E9E751
:1013100010B5436913B1AFF3008001E0FFF7CAF9DC
:10132000012010BD128800F1240182840022C284B1
:101330000122EDE711684FF0FF32E9E72DE9F041B6
:1013400016460C460546FFF79BFB036893F8010120
:10135000012807D0FF2C12D8185D80B101202C7015
:10136000BDE8F081D3F807013246214603F20713A6
:10137000C7182846BC46BDE8F041002360474FF03F
:10138000FF30EDE77546FFF777FBAE46050069468F
:10139000534620F00700854618B020B5FEF7E6FF5B
:1013A000BDE820404FF000064FF000074FF0000866
:1013B0004FF0000BAC46ACE8C009ACE8C009ACE8A3
:1013C000C009ACE8C00921F007018D467047000054
:1013D00000487047300000202DE9F0411F460446C8
:1013E00003260168072A01F4006004DB08B116A592
:1013F00005E016A503E008B115A500E015A521F04C
:1014000010002060A069C01EA0610FB1401EA06145
:101410002046FFF77DF84FB1D4E9012138469047C7
:10142000206A401C2062C01C206206E0206AFAE7A5
:10143000D4E9012115F8010B9047761EF8D2204619
:10144000FFF77CF8BDE8F0814E414E006E616E0002
:10145000494E4600696E66002DE9F0478146164602
:101460008AB0354878440DC88DE80D00324878447C
:10147000801C03AC0DC884E80D0041F69B30084485
:10148000372190FBF1F290FBF1F5A5F1800501FB0E
:1014900012041B3C02D56442012000E00020DFF86A
:1014A00098A080460027FA44AAF1BE0A0EE0E007A1
:1014B0000AD03246684607EB470101230AEB810157
:1014C0000BF06DFE8DE8070064107F1C002CEED140
:1014D000194F7F44AE3F19E0E80715D007EB041021
:1014E0000DF1180A90E80E008AE80E00C068F0427C
:1014F00001D1981908903246012306A903A80BF0E0
:101500004EFE03AB83E807006D10641C002DE3D191
:101510004FF0010332466946B8F1000F03A802D02C
:101520000BF028FE01E00BF03AFEC9E90001C9F812
:1015300008200AB0BDE8F0871CC8000010B50446BA
:10154000AFF300802046BDE81040FEF7FABE000071
:1015500030B44FF0013C50F8042B51F8043BCCFA66
:1015600052F4D51A20D1FCB950F8042B51F8043BA1
:10157000CCFA52F4D51A17D1B4B950F8042B51F85B
:10158000043BCCFA52F4D51A0ED16CB950F8042BA6
:1015900051F8043BCCFA52F4D51A05D1002CDAD01C
:1015A00030BC4FF00000704729BAB1FA81F111F058
:1015B0001801D1F120008440F2D1CA40CB4012F092
:1015C000FF0213F0FF0330BCD01A70470149182006
:1015D000ABBEFEE7260002007047000080B582B077
:1015E00001900198806A00900098C06D10F0500F33
:1015F0004BD1FFE70099C86D40F40070C8650098B2
:10160000006800680007002821D5FFE700980068FF
:1016100007F00EFED0B1FFE700980068C0688004B4
:10162000002812D4FFE70099C86D20F48070C865C7
:101630000098C06DC004002806D4FFE70099C86D6B
:1016400040F00100C865FFE7FFE7FFE719E00098F9
:101650000068C0688007002812D4FFE70099C86DB1
:1016600020F48070C8650098C06DC004002806D4BE
:10167000FFE70099C86D40F00100C865FFE7FFE78C
:10168000FFE7009800F090FF10E00098C06DC006E2
:10169000002804D5FFE7009800F08EFF05E00098D1
:1016A000406D416B01988847FFE7FFE702B080BDBE
:1016B00080B582B001900198806A00900099C86D51
:1016C00040F04000C8650099086E40F004000866CC
:1016D000009800F071FF02B080BD000080B582B0BC
:1016E00001900198806A0090009800F061FF02B0BC
:1016F00080BD000080B584B002900298006807F0B9
:101700006FFD00284ED1FFE70298006880683F21F6
:10171000C8F2000108420ED0FFE70299C86D40F000
:101720001000C8650299086E40F0010008660120AB
:101730008DF80F003AE00298006807F003FD01F011
:1017400027FF0190FFE7029800680068C00740BBD0
:10175000FFE70298006807F043FD28B9FFE7029809
:10176000006807F0EFFCFFE701F012FF0199401A53
:10177000032815D3FFE7029800680068C00770B916
:10178000FFE70299C86D40F01000C8650299086E25
:1017900040F00100086601208DF80F0006E0FFE729
:1017A000D1E7FFE700208DF80F00FFE79DF80F005D
:1017B00004B080BDFFE7FEE780B540F28040C2F292
:1017C000000001F02DFB80BD80B540F2E040C2F288
:1017D000000001F025FB80BD80B540F24050C2F210
:1017E000000001F01DFB80BD80B540F2A050C2F2A8
:1017F000000001F015FB80BD80B540F20060C2F230
:10180000000001F00DFB80BD80B540F26060C2F2C7
:10181000000001F005FB80BD80B540F2C030C2F28F
:10182000000001F0FDFA80BD80B540F22040C2F218
:10183000000001F0F5FA80BD80B540F24020C2F210
:10184000000001F0EDFA80BD80B540F2A020C2F2A8
:10185000000001F0E5FA80BD80B540F20030C2F230
:10186000000001F0DDFA80BD80B540F26030C2F2C8
:10187000000001F0D5FA80BD80B540F2E010C2F260
:10188000000001F0CDFA80BD84B003900398006899
:1018900040F20741C4F20201884206D8FFE740F651
:1018A0000000C4F20200009005E040F62000C4F2FF
:1018B00002000090FFE70098029003980078083833
:1018C0004CF6CD41CCF6CC41A0FB011000090190B3
:1018D000029803994A6C22F0030210448864039929
:1018E00040F68000C4F20200C864019800F01F01B5
:1018F000012088400399086504B0704782B00190C8
:10190000019800790090009940F6FC00C4F20200B2
:1019100000EB810001994865019940F64010C4F23E
:10192000020088650098013800F01F0101208840FE
:101930000199C86502B0704784B00390029101928A
:1019400000930398C16C006D48600398406D28B106
:10195000FFE70398816DC06D4860FFE70398016C55
:10196000406C00F01F0201209040486000980399ED
:101970000968486003988068102809D1FFE701983A
:10198000039909688860029803990968C86008E0AB
:101990000298039909688860019803990968C860EA
:1019A000FFE704B0704700007047000081B0EFF31C
:1019B000108072B60090FFE7FEE7000080B5AEB081
:1019C0002C902B9100208DF8AB002B98006808B16B
:1019D000FFE7FFE7FFE72C9890F85800012804D1B3
:1019E000FFE702208DF8B7005DE12C99012081F816
:1019F0005800FFE7FFE70020259026902C9800680C
:101A0000B0F1A04F06D1FFE740F20010C5F2000090
:101A10000E9015E02C98006840F20041C5F20001DC
:101A2000884207D1FFE740F20050C5F200000E9057
:101A30000C9003E000200E900C90FFE70C98FFE75D
:101A40000E9878B9FFE72C99C86D40F02000C86562
:101A5000FFE72C99002081F85800FFE701208DF85E
:101A6000B70020E10E9807F0DBFB0D902C98006882
:101A700007F0D6FB002840F00281FFE70D98002810
:101A800040F0FD80FFE72C9801680120B1F1A04FE4
:101A90000B900CD0FFE72C9800684FF60071CAF647
:101AA000FF710844B0FA80F040090B90FFE70B98F3
:101AB000C10740F20070C5F2000000291CBF40F2CF
:101AC0000030C5F2000029902B980068002872D0E1
:101AD000FFE72998806820F460402B9949682C9A88
:101AE00092F8382041EA42310843299988602C98BD
:101AF00001680120B1F1A04F0A900CD0FFE72C98AB
:101B000000684FF60071CAF6FF710844B0FA80F021
:101B100040090A90FFE70A98C10740F20070C5F239
:101B2000000000291CBF40F20030C5F2000040F266
:101B30000031C5F20001884210D1FFE74FF0A0400C
:101B400007F056FB089040F20010C5F2000007F0C5
:101B50004FFB01460898084309901BE040F2004003
:101B6000C5F2000007F044FB069040F20050C5F2B9
:101B7000000007F03DFB014606980843079040F23D
:101B80000060C5F2000007F033FB014607980843E8
:101B90000990FFE7099868B9FFE72998806840F63F
:101BA0001F7188432B9A1168926811430843299941
:101BB0008860FFE762E02999886820F460408860C7
:101BC0002C9801680120B1F1A04F05900CD0FFE7DF
:101BD0002C9800684FF60071CAF6FF710844B0FAFD
:101BE00080F040090590FFE70598C10740F20070BA
:101BF000C5F2000000291CBF40F20030C5F2000011
:101C000040F20031C5F20001884210D1FFE74FF0E9
:101C1000A04007F0EDFA039040F20010C5F200007A
:101C200007F0E6FA01460398084304901BE040F2EF
:101C30000040C5F2000007F0DBFA019040F20050CE
:101C4000C5F2000007F0D4FA01460198084302905B
:101C500040F20060C5F2000007F0CAFA014602989F
:101C600008430490FFE7049838B9FFE7299988688A
:101C700040F61F7290438860FFE7FFE708E02C9969
:101C8000C86D40F02000C86501208DF8AB00FFE76B
:101C9000FFE72C99002081F85800FFE79DF8AB0082
:101CA0008DF8B700FFE79DF8B7002EB080BD0000AB
:101CB00080B5C4B02490239100208DF88B001F9034
:101CC0002398C0680021C4F27F01884201D0FFE759
:101CD00000E0FFE7FFE7249890F85800012805D1BD
:101CE000FFE702208DF8970000F059BC24990120ED
:101CF00081F85800FFE7FFE72498006807F088FAAA
:101D0000002840F03884FFE72498006823990A6887
:101D1000496807F099FA2498006807F079FA1E904C
:101D20002498006807F04CFA1D901E98002840F097
:101D3000B881FFE71D98002840F0B381FFE72398A2
:101D40008068B0F1004F0ED1FFE724980068239916
:101D50000968002207F0A4FA249800684FF00041B7
:101D600007F054FB0CE024980068239A11689268ED
:101D700007F096FA24980068002107F047FBFFE778
:101D80002398406924990968C96801F018018908F5
:101D9000884021902398006904281CD0FFE72498EC
:101DA000006823990A680969219B07F0D5FA2498ED
:101DB0000068239A1169926907F000FB2498006873
:101DC000239A1169127F013AB2FA82F2520952063D
:101DD00007F0E0FA64E124980068002107F0E0F9D8
:101DE000400348B9FFE724980068002107F0D8F9BC
:101DF000C0F384601C9018E024980068002107F06C
:101E0000CFF990FAA0F04290429820B9FFE7202045
:101E10008DF80F0105E04298B0FA80F08DF80F01BF
:101E2000FFE79DF80F011C90FFE71C981B9023987B
:101E30000068400330B9FFE723980068C0F384606E
:101E40001A9015E02398006890FAA0F0409040980E
:101E500020B9FFE720208DF8070105E04098B0FA8F
:101E600080F08DF80701FFE79DF807011A90FFE762
:101E70001B981A99884207D1FFE72498006800222E
:101E8000114607F0AFFAFFE724980068012107F038
:101E900087F9400348B9FFE724980068012107F05B
:101EA0007FF9C0F38460199018E02498006801213C
:101EB00007F076F990FAA0F03E903E9820B9FFE73F
:101EC00020208DF8FF0005E03E98B0FA80F08DF8F4
:101ED000FF00FFE79DF8FF001990FFE719981890A1
:101EE00023980068400330B9FFE723980068C0F3E7
:101EF0008460179015E02398006890FAA0F03C9059
:101F00003C9820B9FFE720208DF8F70005E03C98C9
:101F1000B0FA80F08DF8F700FFE79DF8F700179012
:101F2000FFE718981799884207D1FFE724980068BF
:101F30000121002207F056FAFFE7249800680221E9
:101F400007F02EF9400348B9FFE724980068022102
:101F500007F026F9C0F38460169018E02498006812
:101F6000022107F01DF990FAA0F03A903A9820B9B2
:101F7000FFE720208DF8EF0005E03A98B0FA80F0F6
:101F80008DF8EF00FFE79DF8EF001690FFE7169839
:101F9000159023980068400330B9FFE72398006844
:101FA000C0F38460149015E02398006890FAA0F0C4
:101FB0003890389820B9FFE720208DF8E70005E039
:101FC0003898B0FA80F08DF8E700FFE79DF8E70059
:101FD0001490FFE715981499884207D1FFE72498D9
:101FE00000680221002207F0FDF9FFE7249800684D
:101FF000032107F0D5F8400348B9FFE724980068AB
:10200000032107F0CDF8C0F38460139018E0249802
:102010000068032107F0C4F890FAA0F036903698D3
:1020200020B9FFE720208DF8DF0005E03698B0FAF0
:1020300080F08DF8DF00FFE79DF8DF001390FFE7E9
:102040001398129023980068400330B9FFE7239853
:102050000068C0F38460119015E02398006890FA3E
:10206000A0F03490349820B9FFE720208DF8D700F5
:1020700005E03498B0FA80F08DF8D700FFE79DF8BE
:10208000D7001190FFE712981199884207D1FFE716
:10209000249800680321002207F0A4F9FFE7FFE776
:1020A000FFE72498006807F09BF8002840F044817F
:1020B000FFE724980068239A1168D26807F00CF9AA
:1020C0002398C0680021C4F27F01884240F0338128
:1020D000FFE724980068109023980068400330B907
:1020E000FFE723980068C0F384600F9015E0239801
:1020F000006890FAA0F03290329820B9FFE72020D3
:102100008DF8CF0005E03298B0FA80F08DF8CF005E
:10211000FFE79DF8CF000F90FFE70F98013000F028
:102120001F0009287DD8FFE723980068400330B9D5
:10213000FFE723980068C0F384600E9015E02398B1
:10214000006890FAA0F03090309820B9FFE7202086
:102150008DF8C70005E03098B0FA80F08DF8C70020
:10216000FFE79DF8C7000E90FFE70E98013000F0E2
:102170001F0080060D9023980068400330B9FFE7E8
:1021800023980068C0F384600C9015E023980068E1
:1021900090FAA0F02E902E9820B9FFE720208DF81D
:1021A000BF0005E02E98B0FA80F08DF8BF00FFE781
:1021B0009DF8BF000C90FFE70D980C99013101F0DC
:1021C0001F020121914008430B90239800684003AF
:1021D00030B9FFE723980068C0F384600A9015E0E7
:1021E0002398006890FAA0F02C902C9820B9FFE773
:1021F00020208DF8B70005E02C98B0FA80F08DF81B
:10220000B700FFE79DF8B7000A90FFE70B980A991F
:10221000013101F01F0101EB410140EA0150099039
:1022200082E023980068400330B9FFE723980068F4
:10223000C0F38460089015E02398006890FAA0F03D
:102240002A902A9820B9FFE720208DF8AF0005E0FA
:102250002A98B0FA80F08DF8AF00FFE79DF8AF0044
:102260000890FFE70898013000F01F0080060790F3
:1022700023980068400330B9FFE723980068C0F353
:102280008460069015E02398006890FAA0F02890EA
:10229000289820B9FFE720208DF8A70005E02898AE
:1022A000B0FA80F08DF8A700FFE79DF8A700069030
:1022B000FFE707980699013101F01F0201219140C3
:1022C0000843059023980068400330B9FFE723983E
:1022D0000068C0F38460049015E02398006890FAC9
:1022E000A0F02690269820B9FFE720208DF89F00C7
:1022F00005E02698B0FA80F08DF89F00FFE79DF882
:102300009F000490FFE705990498013000F01F003A
:1023100000EB40020020CFF6206000EB02500843A3
:1023200040F000700990FFE710980999239A92688D
:1023300006F0B6FFFFE7FFE72398408848F2080160
:10234000084200F01781FFE7249801680120B1F1ED
:10235000A04F03900CD0FFE7249800684FF600715F
:10236000CAF6FF710844B0FA80F040090390FFE715
:102370000398C10740F20070C5F2000000291CBF9D
:1023800040F20030C5F2000006F0FAFE20902398DB
:10239000006840F20001CCF22131884208D0FFE70A
:1023A000239800681021C9F2C00188425AD1FFE782
:1023B0009DF882000006002854D4FFE724980068A6
:1023C000B0F1A04F09D0FFE72498006840F2006107
:1023D000C5F20001884244D1FFE72498016801203A
:1023E000B1F1A04F02900CD0FFE7249800684FF69F
:1023F0000071CAF6FF710844B0FA80F040090290FB
:10240000FFE70298C10740F20070C5F20000002902
:102410001CBF40F20030C5F20000209941F40001D9
:1024200006F08CFF40F20000C2F2000000684FEAA4
:10243000901042F66351C0F23E51A0FB01104FEAEA
:10244000901000EB40014FF00C0000EB81001F905A
:10245000FFE71F9820B1FFE71F9801381F90F8E7AA
:10246000FFE786E0239800680021CCF25271884291
:102470003ED1FFE79DF88300C007C8BBFFE7249863
:10248000006840F20011C5F20001884209D1FFE75F
:102490002498006840F20051C5F20001884226D01D
:1024A000FFE7249801680120B1F1A04F01900CD002
:1024B000FFE7249800684FF60071CAF6FF710844E0
:1024C000B0FA80F040090190FFE70198C10740F29F
:1024D0000070C5F2000000291CBF40F20030C5F2B8
:1024E0000000209941F0807106F028FFFFE73FE0EF
:1024F000239800680021CCF68431884236D1FFE76A
:102500009DF882004006002830D4FFE72498006838
:1025100040F20011C5F20001884226D0FFE724985E
:1025200001680120B1F1A04F00900CD0FFE7249882
:1025300000684FF60071CAF6FF710844B0FA80F0E7
:1025400040090090FFE70098C10740F20070C5F213
:10255000000000291CBF40F20030C5F200002099A5
:1025600041F4800106F0EAFEFFE700E0FFE7FFE745
:10257000FFE7FFE708E02499C86D40F02000C86538
:1025800001208DF88B00FFE7FFE72499002081F8F8
:102590005800FFE79DF88B008DF89700FFE79DF846
:1025A000970044B080BD000081B0009001B070473A
:1025B00081B0009001B0704781B0009001B07047C9
:1025C00080B58EB00C9000208DF82F0008900C98EC
:1025D00020B9FFE701208DF83700E1E10C98406950
:1025E00040B1FFE70C9890F82400012801D1FFE7E3
:1025F000FFE7FFE70C98C06D50B9FFE70C9800F0BB
:10260000D3F90C99002008660C9981F85800FFE76F
:102610000C98006806F0DCFD28B1FFE70C98006814
:1026200006F084FDFFE70C98006806F0E9FDF0B9BC
:10263000FFE70C98006806F093FD40F20000C2F23C
:1026400000000068800942F66351C0F23E51A0FBD1
:1026500001108109022000EB41000890FFE7089873
:1026600020B1FFE7089801380890F8E7FFE70C98D9
:10267000006806F0C5FD70B9FFE70C99C86D40F021
:102680001000C8650C99086E40F001000866012032
:102690008DF82F00FFE70C98006806F0B9FD09904F
:1026A0000C98C06DC006002800F16C81FFE7099806
:1026B000002840F06781FFE70C98C06D40F00200F1
:1026C00020F480700C99C8650C98006806F088FDAD
:1026D00000287CD1FFE70C9801680120B1F1A04FE0
:1026E00005900CD0FFE70C9800684FF60071CAF611
:1026F000FF710844B0FA80F040090590FFE70598A3
:10270000C10740F20070C5F2000000291CBF40F272
:102710000030C5F2000040F20031C5F200018842ED
:1027200010D1FFE74FF0A04006F05AFD039040F2B1
:102730000010C5F2000006F053FD0146039808435F
:1027400004901BE040F20040C5F2000006F048FD96
:10275000019040F20050C5F2000006F041FD014634
:1027600001980843029040F20060C5F2000006F0B4
:1027700037FD0146029808430490FFE7049828BB00
:10278000FFE70C9801680120B1F1A04F00900CD038
:10279000FFE70C9800684FF60071CAF6FF71084415
:1027A000B0FA80F040090090FFE70098C10740F2BE
:1027B0000070C5F2000000291CBF40F20030C5F2D5
:1027C00000000C99496806F0ABFDFFE7FFE70C99A4
:1027D0004A7FC86B40EA42308A68CB68184310438E
:1027E00091F8241040EA01400A900C9890F82400D7
:1027F00001280BD1FFE70C98816A0020CFF6FE700C
:1028000000EB41410A9808430A90FFE70C98C06A20
:1028100050B1FFE70C99C86A096B00F47870014366
:102820000A9808430A90FFE70C980068C06844F2D1
:102830000701CFF6F07108400A9908430C9909681E
:10284000C8600C980068006920F040600C9A11681C
:10285000526B104308610C98006806F0D9FC079091
:102860000C98006806F0ACFC06900798002868D128
:10287000FFE70698002864D1FFE70C99087F91F8DC
:102880003810800340EA41000A900C980068C06844
:1028900044F2020188430A9908430C990968C86008
:1028A0000C980069A0B1FFE70C980168086940F432
:1028B000803008610C980068D0F8C00043F6FF71C2
:1028C00088430C9A116812691043C1F8C00011E0E6
:1028D0000C980168086920F4803008610C98006841
:1028E000D0F8C00043F6FF7188430C990968C1F81D
:1028F000C000FFE70C9890F84000012819D1FFE7CD
:102900000C980068006940F2FD7120EA01020C9BFE
:102910001968586CD3F848E0D3F84CC040EA0E0070
:1029200040EA0C001B6D1843104340F001000861A1
:1029300006E00C980168086920F001000861FFE7D3
:10294000FFE70C98406901280CD1FFE70C9800685C
:10295000006B20F00F000C9A1168126A013A1043C4
:10296000086306E00C980168086B20F00F0008630C
:10297000FFE70C98C06D40F0010020F002000C99B8
:10298000C86508E00C99C86D40F01000C8650120CA
:102990008DF82F00FFE79DF82F008DF83700FFE737
:1029A0009DF837000EB080BD80B5A0B01F9000200C
:1029B0001E901D901C901B901A9005A85421FDF7A5
:1029C0007DFD1F98006840F20041C5F20001884279
:1029D00066D1FFE74FF4803005904FF0004017902C
:1029E00005A801F059FB18B1FFE7FEF7DFFFFFE78D
:1029F000FFE741F24C00C4F20200016841F480415B
:102A00000160006800F4804004900498FFE7FFE74D
:102A100041F24C00C4F20200016841F0080101607B
:102A2000006800F0080003900398FFE74FF480402F
:102A30001A9003201B90002001901C9040F600404B
:102A4000C4F600001AA900F0C1FB019940F2E010A1
:102A5000C2F20000029040F25842C4F20202026048
:102A6000252242608160C160802202614FF4807241
:102A700042614FF480628261C161016200F07CFAC0
:102A800018B1FFE7FEF792FFFFE7FFE71F9840F25C
:102A9000E011C2F2000141651F988862FFE7FFE77D
:102AA00020B080BD80B58AB0089007910692089842
:102AB00001680120B1F1A04F03900CD0FFE7089806
:102AC00000684FF60071CAF6FF710844B0FA80F052
:102AD00040090390FFE70398C10740F20070C5F278
:102AE000000000291CBF40F20030C5F2000006F0D3
:102AF0004FFB04900898006806F08AFB002840F01D
:102B0000CA80FFE7FFE7089890F85800012804D131
:102B1000FFE702208DF82700C6E00899012081F820
:102B20005800FFE7FFE70898006840F20061C5F22F
:102B3000000188420CD0FFE7049848B1FFE70498F1
:102B4000052805D0FFE70498092840F09980FFE7A1
:102B50000898FEF7CFFD8DF817009DF817000028A4
:102B600040F08680FFE70898C06D40F4807040F622
:102B7000016188430899C8650898006840F200110F
:102B8000C5F20001884204D1FFE74FF0A040029057
:102B900015E00898006840F20051C5F20001884233
:102BA00006D1FFE740F20040C5F20000019003E0CB
:102BB000089800680190FFE701980290FFE70298EB
:102BC00008990968884203D0FFE7049830B9FFE705
:102BD0000899C86D20F48010C865FFE70898C06D9B
:102BE000C004002806D5FFE70899086E20F006000B
:102BF000086603E0089900200866FFE70898416D21
:102C000041F2DD50C0F60000C8620898416D41F203
:102C1000DD60C0F6000008630898416D41F2B160C4
:102C2000C0F600004863089801681C200860FFE7B0
:102C30000899002081F85800FFE708980168486863
:102C400040F01000486008980168C86840F0010032
:102C5000C86008980168406D4031079A069B00F0F3
:102C600037FA8DF817000898006806F00BFB06E0AD
:102C7000FFE70899002081F85800FFE7FFE709E027
:102C800001208DF81700FFE70899002081F858000F
:102C9000FFE7FFE703E002208DF81700FFE79DF84C
:102CA00017008DF82700FFE79DF827000AB080BDC8
:102CB00082B0019000208DF80300019890F8250063
:102CC000022807D0FFE701990420C86301208DF88E
:102CD00003002DE001980168086820F00E000860EC
:102CE0000198816C086820F4807008600198016880
:102CF000086820F0010008600198016C406C00F049
:102D00001F020120904048600198C16C006D48602E
:102D10000198406D58B1FFE70198416D086820F4B3
:102D2000807008600198816DC06D4860FFE7FFE723
:102D30000199012081F82500FFE70199002081F821
:102D40002400FFE79DF8030002B0704780B582B011
:102D5000019000208DF80300019890F825000228CA
:102D600011D0FFE701990420C8630199012081F87F
:102D70002500FFE70199002081F82400FFE70120EA
:102D80008DF803003FE001980168086820F00E000C
:102D9000086001980168086820F001000860019847
:102DA000816C086820F4807008600198016C406CA8
:102DB00000F01F020120904048600198C16C006D36
:102DC00048600198406D58B1FFE70198416D08686F
:102DD00020F4807008600198816DC06D4860FFE745
:102DE0000199012081F82500FFE70199002081F871
:102DF0002400FFE70198806B20B1FFE70198816B09
:102E00008847FFE7FFE79DF8030002B080BD0000A0
:102E100081B00090009890F8250001B07047000044
:102E200080B584B003900398006C0068029003980A
:102E300000680068019002980399496C01F01F0135
:102E4000C8404007002825D5FFE79DF8040040074B
:102E500000281FD5FFE70398006800688006002857
:102E600007D4FFE703980168086820F004000860B1
:102E7000FFE70398016C406C00F01F0204209040B3
:102E800048600398006B20B1FFE70398016B884707
:102E9000FFE76EE002980399496C01F01F01C840FA
:102EA000800700282FD5FFE79DF804008007002841
:102EB00029D5FFE7039800680068800600280BD436
:102EC000FFE703980168086820F00A00086003998A
:102ED000012081F82500FFE70398016C406C00F0A9
:102EE0001F02022090404860FFE70399002081F80C
:102EF0002400FFE70398C06A20B1FFE70398C16A86
:102F00008847FFE734E002980399496C01F01F01FC
:102F1000C8400007002829D5FFE79DF804000007F6
:102F2000002823D5FFE703980168086820F00E0009
:102F300008600398026C406C00F01F01012000FA49
:102F400001F151600399C863039981F82500FFE7F7
:102F50000399002081F82400FFE70398406B20B11B
:102F6000FFE70398416B8847FFE700E0FFE7FFE7D3
:102F7000FFE704B080BD000080B584B002900298E5
:102F800020B9FFE701208DF80F009CE0029800684F
:102F900040F20741C4F20201884218D8FFE70299C3
:102FA00008684FF6F872CBF6FD7210444CF6CD422D
:102FB000CCF6CC42A0FB02026FF0030000EA9200C4
:102FC000486402990020C4F20200086418E00299E3
:102FD00008684FF6F832CBF6FD7210444CF6CD423D
:102FE000CCF6CC42A0FB02026FF0030000EA920094
:102FF0004864029940F20040C4F202000864FFE70E
:103000000299022081F8250002980068006801906A
:10301000019847F6F0718843019002998868D1F8C9
:103020000CC00B694A6940EA0C00184310438A69D6
:103030001043CA691043096A01430198084301908B
:1030400001980299096808600298FEF71DFC029831
:103050008068B0F5804F04D1FFE7029900204860F6
:10306000FFE702990879896C08600298C16C006DCD
:1030700048600298406888B1FFE7029840680428D9
:103080000CD8FFE70298FEF739FC0298416D00204A
:1030900008600298816DC06D486007E002990020C9
:1030A0004865029988650299C865FFE70299002082
:1030B000C863029A012182F82510029981F8240040
:1030C0008DF80F00FFE79DF80F0004B080BD0000F1
:1030D00080B586B0049003910292019300208DF890
:1030E0000300FFE7049890F82400012804D1FFE7CB
:1030F00002208DF8170065E00499012081F8240072
:10310000FFE7FFE7049890F8250001284BD1FFE77F
:103110000499022081F8250004990020C8630498CE
:103120000168086820F00100086004980399029A79
:10313000019BFEF701FC0498006B38B1FFE704988F
:103140000168086840F00E0008600CE0049801680F
:10315000086820F00400086004980168086840F0DE
:103160000A000860FFE70498806C0068C00300282C
:1031700007D5FFE70498816C086840F48070086008
:10318000FFE70498406D38B1FFE70498416D086887
:1031900040F480700860FFE704980168086840F018
:1031A0000100086009E0FFE70499002081F824008D
:1031B000FFE702208DF80300FFE79DF803008DF87C
:1031C0001700FFE79DF8170006B080BD8BB00A908E
:1031D000099100200890FFE7099800680899C84005
:1031E000002800F0A581FFE709980068089A0121EE
:1031F0009140084007900798002800F09581FFE76C
:103200000998406800F00300012807D0FFE70998FB
:10321000406800F0030002282FD1FFE70A98806879
:10322000069008984100032000FA01F106988843AF
:1032300006900998C0680899490000FA01F10698BB
:103240000843069006980A9988600A984068069094
:103250000899012000FA01F1069888430690099820
:103260004068C0F30010089900FA01F1069808437D
:10327000069006980A994860FFE70998406800F0B0
:103280000300032818D0FFE70A98C0680690089842
:103290004100032000FA01F106988843069009983E
:1032A00080680899490000FA01F1069808430690E1
:1032B00006980A99C860FFE70998406800F0030083
:1032C000022826D1FFE70A9808996FF0030202EA64
:1032D00051010844006A0690089800F00700810038
:1032E0000F2000FA01F106988843069009980069BA
:1032F000089901F00701890000FA01F106980843D6
:10330000069006980A99089B02EA53021144086243
:10331000FFE70A980068069008984100032000FA29
:1033200001F10698884306900998406800F0030070
:103330000899490000FA01F106980843069006989A
:103340000A990860099880798007002800F0EB80CE
:10335000FFE7FFE741F26000C4F20200016841F0BC
:1033600001010160006800F0010005900598FFE789
:10337000089820F003000821C4F20101405806908B
:10338000089800F0030081000F2000FA01F1069870
:10339000884306900A98B0F1904F03D1FFE70020D0
:1033A000049042E00A9840F20041C4F600018842CD
:1033B00003D1FFE70120039034E00A9840F60001B2
:1033C000C4F60001884203D1FFE70220029026E004
:1033D0000A9840F60041C4F60001884203D1FFE795
:1033E0000320019018E00A9841F20001C4F60001A0
:1033F000884203D1FFE7042000900AE00A9941F2D5
:103400000042C4F600020620914208BF0520009049
:10341000FFE700980190FFE701980290FFE702980C
:103420000390FFE703980490FFE70498089901F0E0
:103430000301890000FA01F10698084306900698F6
:10344000089921F003010822C4F20102885040F2D9
:103450000840C4F201000068069007990698884366
:10346000069009988079C006002805D5FFE70799DE
:10347000069808430690FFE7069840F20841C4F218
:103480000101086040F20C40C4F20100006806909F
:103490000799069888430690099880798006002845
:1034A00005D5FFE70799069808430690FFE70698B9
:1034B00040F20C41C4F20101086040F20440C4F241
:1034C00001000068069007990698884306900998BD
:1034D00080798007002805D5FFE7079906980843FB
:1034E0000690FFE7069840F20441C4F2010108602B
:1034F00040F20040C4F20100006806900799069867
:103500008843069009988079C00728B1FFE707999A
:10351000069808430690FFE7069840F20041C4F27F
:1035200001010860FFE7FFE708980130089053E6C3
:103530000BB0704782B00190ADF80210019800699D
:10354000BDF80210084204D0FFE701208DF8010009
:1035500003E000208DF80100FFE79DF8010002B0B4
:103560007047000082B00190ADF802108DF8012084
:103570009DF8010028B1FFE7BDF8020001998861BC
:1035800004E0BDF8020001998862FFE702B07047CD
:1035900040F69470C2F200000068704783B001905A
:1035A0000091019890F8410020283BD1FFE7FFE708
:1035B000019890F84000012804D1FFE702208DF81F
:1035C0000B0033E00199012081F84000FFE7FFE79D
:1035D0000199242081F8410001980168086820F0D1
:1035E0000100086001980168086820F480500860B4
:1035F000009A019801680868104308600198016802
:10360000086840F0010008600199202081F841001D
:10361000FFE70199002081F84000FFE700208DF8C6
:103620000B0003E002208DF80B00FFE79DF80B0074
:1036300003B0704784B002900191029890F8410065
:10364000202840D1FFE7FFE7029890F840000128CA
:1036500004D1FFE702208DF80F0038E00299012025
:1036600081F84000FFE7FFE70299242081F841003C
:1036700002980168086820F001000860029800685C
:1036800000680090009820F4706000900199009804
:1036900040EA0120009000980299096808600298A9
:1036A0000168086840F0010008600299202081F854
:1036B0004100FFE70299002081F84000FFE7002069
:1036C0008DF80F0003E002208DF80F00FFE79DF852
:1036D0000F0004B07047000081B0009001B0704747
:1036E00082B001908DF80310ADF8002002B0704751
:1036F00080B584B0039003980068806902900398B5
:103700000068006801900398406B30B1FFE70398B0
:10371000436B0299019A9847FFE704B080BD00000F
:1037200081B0009001B0704780B582B000900098E1
:1037300020B9FFE701208DF8070073E0009890F8AA
:10374000410040B9FFE70099002081F8400000984F
:1037500000F09EF9FFE70099242081F841000098CD
:103760000168086820F0010008600098016840685E
:1037700020F07060086100980168886820F40040BB
:1037800088600098C068012807D1FFE700980168A9
:10379000806840F40040886006E000980168806816
:1037A00040F404408860FFE70098C068022806D112
:1037B000FFE7009801684FF400604860FFE7009859
:1037C0000168486848F20002C0F2002210434860D5
:1037D00000980168C86820F40040C860009A116829
:1037E000106953699269184340EA0220C860009A40
:1037F0001168D069126A104308600098016808686F
:1038000040F001000860009900204864009A2021DF
:1038100082F8411000990863009981F842008DF800
:103820000700FFE79DF8070002B080BD81B000905F
:1038300001B0704781B0009001B0704781B0009036
:1038400001B0704781B0009001B0704781B0009026
:1038500001B0704780B58AB084460D98DDF830E03D
:10386000CDF820C0ADF81E10ADF81C20ADF81A3010
:10387000ADF81800089890F84100202840F0008129
:10388000FFE70C9820B1FFE7BDF8180040B9FFE74B
:1038900008994FF40070486401208DF82700F3E088
:1038A00008980068806981B20120B0EBD13F04D153
:1038B000FFE702208DF82700E6E0FFE7089890F880
:1038C0004000012804D1FFE702208DF82700DBE04B
:1038D0000899012081F84000FFE7FFE7FFF758FE55
:1038E00005900899222081F841000899402081F82C
:1038F00042000899002048640C9808994862BDF875
:1039000018000899488508990020CFF6FF70C86212
:10391000089948F2E970C0F6000048630898408DA5
:10392000B0F5807F07D3FFE70899FF2008854FF0A7
:103930008070049007E00898408D089908854FF042
:1039400000700490FFE70898BDF81E10BDF81C2019
:10395000BDF81A30DDF814C0EE46CEF804C04FF0C2
:10396000190CCEF800C005F057F850B1FFE7FFE79B
:103970000899002081F84000FFE701208DF827001A
:1039800082E00898C06B00B3FFE70898C16B47F668
:10399000B920C0F60000C8620898C16B47F69520B0
:1039A000C0F6000048630898C16B002008630899BE
:1039B000C96B8863089B1968D86B24310C9A1B8DDE
:1039C000FFF786FB8DF80F0016E00899202081F89C
:1039D00041000899002081F842000899486C40F0A5
:1039E00080004864FFE70899002081F84000FFE765
:1039F00001208DF8270047E09DF80F0028BBFFE766
:103A00000898BDF81E1090F82820049BEE4642F25C
:103A1000004CC8F2000CCEF800C005F09FFA0899DF
:103A20000A8D488D801A4885FFE70899002081F8A3
:103A30004000FFE70898102104F0E4F808980168B6
:103A4000086840F40040086016E00899202081F8DA
:103A500041000899002081F842000899486C40F024
:103A600010004864FFE70899002081F84000FFE754
:103A700001208DF8270007E000208DF8270003E0E3
:103A800002208DF82700FFE79DF827000AB080BDCF
:103A900080B5AAB0299000202890279026902590E4
:103AA00024900FA85421FCF709FD2998006845F2DD
:103AB0000041C4F20001884240F0B680FFE7402098
:103AC0000F90002016900FA800F0E6FA18B1FFE75B
:103AD000FDF76CFFFFE7FFE741F24C00C4F2020084
:103AE000016841F001010160006800F001000E90E2
:103AF0000E98FFE7FFE741F24C00C4F202000168B4
:103B000041F002010160006800F002000D900D9884
:103B1000FFE74FF4004024901220069025900020EB
:103B20000790269027900420089028904FF090400E
:103B300024A90991FFF74AFB069B079A089809995F
:103B40004FF4007CCDF890C02593269227922890C0
:103B500040F20040C4F60000FFF738FBFFE741F2F7
:103B60005800C4F20200016841F4001101600068CD
:103B700000F400100C900C98FFE740F24020C2F2D5
:103B80000000059040F20841C4F2020101601021DA
:103B9000416000218160C1608022026141618161D8
:103BA000C1610162FFF7E8F918B1FFE7FDF7FEFE1A
:103BB000FFE7FFE7299840F24021C2F20001C1630C
:103BC00029988862FFE740F2A020C2F2000004902A
:103BD00040F21C41C4F20201016011214160102138
:103BE00081600021C1608022026141618161C16107
:103BF0000162FFF7C1F918B1FFE7FDF7D7FEFFE754
:103C0000FFE7299840F2A021C2F2000181632998C0
:103C10008862FFE71F2003900022114600F038F968
:103C2000039800F02BF991E02998006845F600010F
:103C3000C4F20001884240F08880FFE780200F90A6
:103C4000002017900FA800F027FA18B1FFE7FDF742
:103C5000ADFEFFE7FFE741F24C00C4F2020001684D
:103C600041F001010160006800F001000B900B9829
:103C7000FFE74FF4407024901220259000202690FA
:103C80002790042028904FF0904024A9FFF79EFA37
:103C9000FFE741F25800C4F20200016841F48001DC
:103CA0000160006800F480000A900A98FFE740F283
:103CB0000030C2F20000029040F23041C4F2020132
:103CC00001601221416000218160C1608022026197
:103CD00041618161C1610162FFF74EF918B1FFE7EF
:103CE000FDF764FEFFE7FFE7299840F20031C2F2DA
:103CF0000001C16329988862FFE740F26030C2F298
:103D00000000019040F24441C4F20201016013211D
:103D10004160102181600021C16080220261416107
:103D20008161C1610162FFF727F918B1FFE7FDF773
:103D30003DFEFFE7FFE7299840F26031C2F2000143
:103D4000816329988862FFE7FFE7FFE72AB080BD1B
:103D500081B0009001B0704781B0009001B0704711
:103D600040F20400C2F20000026840F69471C2F210
:103D700000010868104408607047000080B582B0F8
:103D800000208DF80700032000F09AF80F2000F0C3
:103D90000DF820B1FFE701208DF8070002E000F0E8
:103DA00049F8FFE79DF8070002B080BD80B582B0FA
:103DB000019000208DF8030040F20400C2F20000E0
:103DC000006878B3FFE740F20000C2F2000000682C
:103DD00040F20401C2F200010A684FF47A71B1FBAB
:103DE000F2F1B0FBF1F001F0F3FAB0B9FFE701989E
:103DF0000F280DD8FFE701994FF0FF30002200F0A7
:103E000047F8019840F20801C2F20001086003E09F
:103E100001208DF80300FFE703E001208DF8030087
:103E2000FFE703E001208DF80300FFE79DF80300A2
:103E300002B080BD80B582B0FFE741F26000C4F2FD
:103E40000200016841F001010160006800F001001A
:103E500001900198FFE7FFE741F25800C4F2020029
:103E6000016841F080510160006800F080500090CE
:103E70000098FFE700F006F902B080BD80B582B07F
:103E80008DF807009DF9070007F088FD02B080BD9E
:103E900080B586B08DF817000491039207F096FD67
:103EA00002909DF91700019002980499039A06F078
:103EB00053F90146019807F091FD06B080BD00005E
:103EC00080B582B00190019807F0AAFD02B080BDD4
:103ED00085B00390039800285ED1FFE747F2000009
:103EE000C4F20000006800F4C060B0F5806F49D1F2
:103EF000FFE747F28001C4F20001086820F48070F7
:103F0000086047F20002C4F200021168012060F369
:103F10004A21116040F20001C2F200010968322218
:103F200051434DF68362C4F21B32A1FB022100EB28
:103F300091400290FFE747F21400C4F200000168CC
:103F4000002049050029019006D5FFE702980028C6
:103F500018BF01200190FFE70198C00720B1FFE7DB
:103F6000029801380290E6E747F21400C4F200001C
:103F700000684005002804D5FFE703208DF81300F2
:103F80007CE008E047F28001C4F20001086820F4F8
:103F900080700860FFE76DE00398B0F5007F5ED1A8
:103FA000FFE747F20000C4F20000006800F4C060C0
:103FB000B0F5806F49D1FFE747F28001C4F20001FC
:103FC000086840F48070086047F20002C4F2000202
:103FD0001168012060F34A21116040F20001C2F231
:103FE00000010968322251434DF68362C4F21B324C
:103FF000A1FB022100EB91400290FFE747F2140081
:10400000C4F200000168002049050029009006D58F
:10401000FFE70298002818BF01200090FFE70098F2
:10402000C00720B1FFE7029801380290E6E747F2A7
:104030001400C4F2000000684005002804D5FFE722
:1040400003208DF8130019E008E047F28001C4F264
:104050000001086840F480700860FFE709E047F25B
:104060000001C4F200010868022262F34A200860DD
:10407000FFE7FFE700208DF81300FFE79DF813002E
:1040800005B0704747F20801C4F20001086840F427
:10409000804008607047000080B586B00590002021
:1040A0008DF80B008DF80A0005988078000700282D
:1040B00040F1B580FFE700208DF8090041F258007B
:1040C000C4F202000068C000002813D4FFE7FFE735
:1040D00041F25800C4F20200016841F080510160D1
:1040E000006800F0805001900198FFE701208DF8F2
:1040F0000900FFE747F20001C4F20001086840F43C
:1041000080700860FFF744FA0390FFE747F2000071
:10411000C4F200000068C00500280CD4FFE7FFF7D8
:1041200037FA0399401A032804D3FFE703208DF8D8
:104130000B0000E0EAE79DF80B0000285BD1FFE7E9
:1041400041F29000C4F20200006800F44070049054
:104150000498C8B1FFE704980599096D884213D007
:10416000FFE741F29001C4F20201086820F44070B8
:104170000490086840F480300860086820F48030BB
:10418000086004980860FFE79DF81000C007E0B1E0
:10419000FFE7FFF7FDF90390FFE741F29000C4F25B
:1041A00002000068800700280ED4FFE7FFF7F0F94F
:1041B0000399401A41F28931884204D3FFE7032072
:1041C0008DF80B0000E0E8E7FFE79DF80B0060B911
:1041D000FFE741F29001C4F20201086820F4407048
:1041E000059A126D1043086004E09DF80B008DF8ED
:1041F0000A00FFE704E09DF80B008DF80A00FFE7D6
:104200009DF80900012809D1FFE741F25801C4F2E5
:104210000201086820F080500860FFE7FFE705987A
:104220000078C00760B1FFE741F28801C4F20201E3
:10423000086820F00300059A526810430860FFE701
:1042400005980078800700280CD5FFE741F2880127
:10425000C4F20201086820F00C00059A926810432D
:104260000860FFE705980078400700280CD5FFE7B5
:1042700041F28801C4F20201086820F03000059A7A
:10428000D26810430860FFE705980078000700280F
:104290000CD5FFE741F28801C4F20201086820F062
:1042A000C000059A126910430860FFE7059800787E
:1042B000C00600280CD5FFE741F28801C4F20201D4
:1042C000086820F44070059A526910430860FFE7BF
:1042D00005980078800600280CD5FFE741F2880198
:1042E000C4F20201086820F44060059A9269104304
:1042F0000860FFE705980078400600280CD5FFE726
:1043000041F28801C4F20201086820F44050059A85
:10431000D26910430860FFE705980078000600287E
:104320000CD5FFE741F28801C4F20201086820F4CD
:104330004040059A126A10430860FFE705984078EC
:10434000C00760B1FFE741F28801C4F202010868CA
:1043500020F44030059A526A10430860FFE7059840
:104360008078800700280CD5FFE741F29C01C4F259
:104370000201086820F00300059A926A1043086061
:10438000FFE705984078800700280CD5FFE741F249
:104390008801C4F20201086820F44020059AD26A1C
:1043A00010430860FFE705984078400700281BD5B8
:1043B000FFE741F28801C4F20201086820F44010CE
:1043C000059A126B104308600598006BB0F5801FCA
:1043D00009D1FFE741F20C01C4F20201086840F480
:1043E00080100860FFE7FFE7059840780007002885
:1043F0001BD5FFE741F28801C4F20201086820F4EE
:104400004000059A526B104308600598406BB0F568
:10441000800F09D1FFE741F20C01C4F202010868E4
:1044200040F480100860FFE7FFE705984078C00679
:1044300000281BD5FFE741F28801C4F20201086899
:1044400020F04070059A926B104308600598806BCD
:10445000B0F1807F09D1FFE741F20C01C4F2020103
:10446000086840F480100860FFE7FFE7059840788F
:10447000800600281BD5FFE741F28801C4F2020143
:10448000086820F04060059AD26B104308600598D8
:10449000C06BB0F1006F09D1FFE741F20C01C4F22B
:1044A0000201086840F480100860FFE7FFE7059804
:1044B0004078400600281BD5FFE741F28801C4F28E
:1044C0000201086820F04060059A126C10430860F1
:1044D0000598006CB0F1006F09D1FFE741F20C01C3
:1044E000C4F20201086840F480100860FFE7FFE7AB
:1044F00005984078000600281BD5FFE741F28801A7
:10450000C4F20201086820F04050059A526C104332
:1045100008600598406CB0F1805F09D1FFE741F277
:104520000C01C4F20201086840F480300860FFE723
:10453000FFE705988078C007D8B1FFE741F288010E
:10454000C4F20201086820F04040059A926C1043C2
:1045500008600598806CB0F1804F09D1FFE741F207
:104560000C01C4F20201086840F480300860FFE7E3
:10457000FFE705988078400700281BD5FFE741F248
:104580009C01C4F20201086820F44010059AD26C24
:10459000104308600598C06CB0F5001F09D1FFE713
:1045A00041F20C01C4F20201086840F48010086076
:1045B000FFE7FFE79DF80A0006B080BD80B586B032
:1045C0000490039100200090049820B9FFE7012097
:1045D0008DF8170081E1039842F20001C4F2020154
:1045E000096801F00F01884216D9FFE742F2000086
:1045F000C4F20200016821F00F01039A1143016027
:10460000006800F00F000399884204D0FFE7012002
:104610008DF8170061E1FFE704980078C0070028D3
:1046200000F0A380FFE704984068032839D1FFE732
:1046300041F20000C4F2020000688001002804D4A6
:10464000FFE701208DF8170047E105F0BDFD01905F
:1046500001984BF20141C0F2C441884220D3FFE7E8
:1046600041F20800C4F20200006810F0F00F0AD016
:10467000FFE7049800788007002810D5FFE704982A
:10468000806860B9FFE741F20801C4F202010868DE
:10469000082262F30710086080200090FFE7FFE720
:1046A00038E00498406802280ED1FFE741F200008C
:1046B000C4F2020000688003002804D4FFE7012050
:1046C0008DF8170009E10DE041F20000C4F202008C
:1046D00000684005002804D4FFE701208DF817008A
:1046E000FBE0FFE700F02CF9019001984BF201414B
:1046F000C0F2C44188420CD3FFE741F20801C4F282
:1047000002010868082262F3071008608020009008
:10471000FFE7FFE741F20801C4F20201086820F058
:104720000300049A526810430860FEF731FF0290BC
:10473000FFE741F20800C4F20200006800F00C003C
:1047400004994968B0EB810F0ED0FFE7FEF720FF18
:104750000299401A41F28931884204D3FFE70320CD
:104760008DF81700B9E0E4E7FFE7049800788007C8
:1047700000282CD5FFE7049800784007002809D5C9
:10478000FFE741F20801C4F20201086840F4E0606A
:104790000860FFE704980078000700280BD5FFE7C2
:1047A00041F20801C4F20201086840F4E06020F41C
:1047B00060500860FFE741F20801C4F20201086896
:1047C00020F0F000049A9268104308600DE0009811
:1047D000802809D1FFE741F20801C4F2020108680C
:1047E00020F0F0000860FFE7FFE7039842F20001C5
:1047F000C4F20201096801F00F01884228D2FFE7E4
:1048000042F20001C4F20201086820F00F00039A8E
:1048100010430860FEF7BCFE0290FFE742F2000082
:10482000C4F20200006800F00F00039988420ED025
:10483000FFE7FEF7ADFE0299401A41F28931884246
:1048400004D3FFE703208DF8170046E0E6E7FFE713
:1048500004980078400700280CD5FFE741F20801D2
:10486000C4F20201086820F4E060049AD2681043A0
:104870000860FFE704980078000700280DD5FFE7DF
:1048800041F20801C4F20201086820F46050049A61
:10489000126940EAC2000860FFE700F051F841F2F7
:1048A0000801C4F202010968C9B20A094DF69C4127
:1048B000C0F60001895C01F01F01C84040F2000110
:1048C000C2F20001086040F20800C2F20000006875
:1048D000FFF76CFA8DF81700FFE79DF8170006B098
:1048E00080BD000040F20000C2F200000068704786
:1048F00080B5FFF7F7FF41F20801C4F20201096831
:10490000C1F302224DF6AC41C0F60001895C01F012
:104910001F01C84080BD000080B5FFF7E3FF41F2F2
:104920000801C4F202010968C1F3C2224DF6AC418C
:10493000C0F60001895C01F01F01C84080BD000085
:1049400086B041F20800C4F20200006800F00C00DA
:10495000042806D1FFE742F20040C0F2F4000190C3
:1049600069E041F20800C4F20200006800F00C00A7
:10497000082806D1FFE741F20020C0F27A0001903A
:1049800058E041F20800C4F20200006800F00C0098
:104990000C284BD1FFE741F20C00C4F20200016881
:1049A00001F0030104910068C1B2012000EB111075
:1049B000029004980090022815D0FFE70098032881
:1049C00012D1FFE7029941F20020C0F27A00B0FB59
:1049D000F1F041F20C01C4F202010968C1F30621B1
:1049E0004843059011E0FFE7029942F20040C0F20F
:1049F000F400B0FBF1F041F20C01C4F202010968CD
:104A0000C1F3062148430590FFE741F20C00C4F2D0
:104A10000200006800F0C061022000EB116003900A
:104A200005980399B0FBF1F0019002E0002001909D
:104A3000FFE7FFE7FFE7019806B07047B0B588B021
:104A40000690069820B9FFE701208DF81F00D0E3FB
:104A500006980078C007002800F09B80FFE741F22D
:104A60000800C4F20200006800F00C00049041F25B
:104A70000C00C4F20200006800F0030003900498E8
:104A80000C2804D1FFE70398032804D0FFE704981B
:104A9000082812D1FFE741F20000C4F202000068CA
:104AA0008003002808D5FFE70698406820B9FFE793
:104AB00001208DF81F009CE36AE0FFE7069840683C
:104AC000B0F5803F09D1FFE741F20001C4F20201D5
:104AD000086840F48030086020E006984068B0F52F
:104AE000A02F0DD1FFE741F20001C4F202010868D6
:104AF00040F480200860086840F4803008600CE0D2
:104B000041F20001C4F20201086820F4803008601C
:104B1000086820F480200860FFE7FFE7FFE70698B9
:104B20004068D0B1FFE7FEF733FD0590FFE741F2A3
:104B30000000C4F202000068800300280CD4FFE7E4
:104B4000FEF726FD0599401A652804D3FFE70320E8
:104B50008DF81F004DE3EAE719E0FEF719FD059017
:104B6000FFE741F20000C4F2020000688003002861
:104B70000CD5FFE7FEF70CFD0599401A652804D314
:104B8000FFE703208DF81F0033E3EAE7FFE7FFE7C5
:104B9000FFE7069800788007002840F19F80FFE734
:104BA00041F20800C4F20200006800F00C0004901A
:104BB00041F20C00C4F20200006800F00300039010
:104BC00004980C2804D1FFE70398022804D0FFE7DB
:104BD000049804282CD1FFE741F20000C4F202003F
:104BE00000684005002808D5FFE70698C06820B98E
:104BF000FFE701208DF81F00FBE241F20401C4F23F
:104C00000201086820F0FE40069A126940EA02603C
:104C1000086040F20800C2F200000068FFF7C6F822
:104C200020B1FFE701208DF81F00E2E2FFE754E02A
:104C30000698C06870B3FFE741F20001C4F20201B8
:104C4000086840F480700860FEF7A2FC0590FFE75A
:104C500041F20000C4F202000068400500280CD4B4
:104C6000FFE7FEF795FC0599401A032804D3FFE7F8
:104C700003208DF81F00BCE2EAE741F20401C4F210
:104C80000201086820F0FE40069A126940EA0260BC
:104C9000086021E041F20001C4F20201086820F43A
:104CA00080700860FEF774FC0590FFE741F2000099
:104CB000C4F202000068400500280CD5FFE7FEF7AB
:104CC00067FC0599401A032804D3FFE703208DF8F9
:104CD0001F008EE2EAE7FFE7FFE7FFE706980078AC
:104CE0000007002849D5FFE70698406910B3FFE7A1
:104CF00041F29401C4F20201086840F0010008602A
:104D0000FEF746FC0590FFE741F29400C4F2020072
:104D10000068800700280CD4FFE7FEF739FC0599EE
:104D2000401A032804D3FFE703208DF81F0060E238
:104D3000EAE721E041F29401C4F20201086820F0A0
:104D400001000860FEF724FC0590FFE741F29400A3
:104D5000C4F202000068800700280CD5FFE7FEF7C8
:104D600017FC0599401A032804D3FFE703208DF8A8
:104D70001F003EE2EAE7FFE7FFE7069800784007FA
:104D8000002840F1C680FFE700208DF80B0041F2BB
:104D90005800C4F202000068C000002813D4FFE7E6
:104DA000FFE741F25800C4F20200016841F080516F
:104DB0000160006800F0805001900198FFE7012039
:104DC0008DF80B00FFE747F20000C4F20000006816
:104DD000C005002822D4FFE747F20001C4F2000119
:104DE000086840F480700860FEF7D2FB0590FFE78A
:104DF00047F20000C4F200000068C00500280CD48F
:104E0000FFE7FEF7C5FB0599401A032804D3FFE727
:104E100003208DF81F00ECE1EAE7FFE7FFE70698C3
:104E20008068012809D1FFE741F29001C4F2020134
:104E3000086840F0010008601FE0069880680528B7
:104E40000DD1FFE741F29001C4F20201086840F081
:104E500004000860086840F0010008600CE041F2BE
:104E60009001C4F20201086820F00100086008689F
:104E700020F004000860FFE7FFE7FFE7069880687E
:104E8000E0B1FFE7FEF784FB0590FFE741F29000F9
:104E9000C4F202000068800700280ED4FFE7FEF786
:104EA00077FB0599401A41F28931884204D3FFE724
:104EB00003208DF81F009CE1E8E71BE0FEF768FB8C
:104EC0000590FFE741F29000C4F2020000688007FD
:104ED00000280ED5FFE7FEF75BFB0599401A41F26B
:104EE0008931884204D3FFE703208DF81F0080E159
:104EF000E8E7FFE79DF80B00012809D1FFE741F241
:104F00005801C4F20201086820F080500860FFE7F1
:104F1000FFE7069800788006002849D5FFE7069845
:104F2000806910B3FFE741F29801C4F202010868FA
:104F300040F001000860FEF72BFB0590FFE741F20F
:104F40009800C4F202000068800700280CD4FFE734
:104F5000FEF71EFB0599401A032804D3FFE7032040
:104F60008DF81F0045E1EAE721E041F29801C4F223
:104F70000201086820F001000860FEF709FB0590B7
:104F8000FFE741F29800C4F20200006880070028A1
:104F90000CD5FFE7FEF7FCFA0599401A032804D365
:104FA000FFE703208DF81F0023E1EAE7FFE7FFE7B3
:104FB0000698C069002800F01881FFE741F2080058
:104FC000C4F20200006800F00C000C2800F0B4806D
:104FD000FFE70698C06902287CD1FFE741F2000193
:104FE000C4F20201086820F080700860FEF7D0FA71
:104FF0000590FFE741F20000C4F202000068800162
:1050000000280CD5FFE7FEF7C3FA0599401A0328DC
:1050100004D3FFE703208DF81F00EAE0EAE741F23E
:105020000C01C4F20201086848F20C02C0F29F129F
:105030001040DDF818C0DCF82020DCF82450DCF843
:1050400028E0DCF82C306FF00F0404EB0514224349
:1050500042EA0E22DCF8304040F2000ECFF6E07E4D
:105060000EEA045EAEF5001E42EA0E02DCF834E001
:105070004FF07E4C0CEA0E6C0CF17E4C42EA0C02B6
:1050800042EAC3621043086041F20002C4F2020225
:10509000106840F080701060086840F08070086010
:1050A000FEF776FA0590FFE741F20000C4F2020035
:1050B0000068800100280CD4FFE7FEF769FA059923
:1050C000401A032804D3FFE703208DF81F0090E067
:1050D000EAE730E041F20001C4F20201086820F082
:1050E0008070086041F20C01C4F20201086820F0EF
:1050F0000300086008684FF6FF72CFF6EE621040BA
:105100000860FEF745FA0590FFE741F20000C4F29F
:1051100002000068800100280CD5FFE7FEF738FA8E
:105120000599401A032804D3FFE703208DF81F00D8
:105130005FE0EAE7FFE757E00698C069012804D17D
:10514000FFE701208DF81F0053E041F20C00C4F28C
:10515000020000680390039800F003000699096AB2
:1051600088423BD1FFE7039800F0F00006994A6AB5
:105170006FF00F0101EB021188422FD1FFE7039876
:1051800000F4FE400699896AB0EB012F26D1FFE7B3
:10519000039800F078400699C96AB0EBC16F1DD141
:1051A000FFE7039800F4C00006990A6B0021CFF6D0
:1051B000E07101EA0251A1F5001188420ED1FFE72A
:1051C000039800F0C06006994A6B4FF07E4101EAF7
:1051D000026101F17E41884204D0FFE701208DF891
:1051E0001F0006E0FFE7FFE7FFE700208DF81F0044
:1051F000FFE79DF81F0008B0B0BD000080B584B087
:105200000290029820B9FFE701208DF80F0099E085
:105210000298406A60B9FFE702984068B0F5827F63
:1052200001D1FFE703E002990020C861FFE705E034
:1052300002990020086102994861FFE70299002065
:105240008862029890F85D0040B9FFE7029900205B
:1052500081F85C00029800F079F8FFE702990220DB
:1052600081F85D0002980168086820F0400008603D
:105270000298C068B0F5E06F03D9FFE70020019005
:1052800003E04FF480500190FFE70298C068B0F54A
:10529000706F0AD0FFE70298C068B0F5E06F04D0E5
:1052A000FFE7029900208862FFE7029A00921168E6
:1052B0005068D2F808C0136900F482700CF4044CF2
:1052C000604403F002031844536903F001031844D7
:1052D000936903F400731844D36903F03803184446
:1052E000136A03F080031844926A02F400521043D8
:1052F0000860029B1968DA68D3F818E0D3F824C074
:10530000042000EA1E400CF0100C60445B6B03F0BC
:105310000803184402F470621044019A02F48052A7
:105320001044486002980168C86920F40060C861B0
:10533000029900200866029A012182F85D108DF81A
:105340000F00FFE79DF80F0004B080BD80B588B066
:105350000790002006900590049003900290079813
:10536000006843F20001C4F2010188422DD1FFE739
:10537000FFE741F26000C4F20200016841F480518D
:105380000160006800F4805001900198FFE7FFE79A
:1053900041F24C00C4F20200016841F001010160D9
:1053A000006800F0010000900098FFE7E020029004
:1053B00002200390002004900590052006904FF0F5
:1053C000904002A9FDF702FFFFE708B080BD000092
:1053D00080B582B00190019804F046FF02B080BD14
:1053E00081B0009001B0704781B0009001B070476B
:1053F00081B0009001B0704784B00290019100200C
:105400000090FFE7029890F83C00012804D1FFE7E4
:1054100002208DF80F00C4E00299012081F83C00C1
:10542000FFE7FFE7009820F0FF000199C9680843F3
:105430000090009820F4407001998968084300901A
:10544000009820F480600199496808430090009812
:1054500020F400600199096808430090009820F446
:1054600080500199096908430090009820F4005089
:105470000199496908430090009820F480400199FF
:10548000096B08430090009820F470200199896905
:1054900040EA014000900298006842F60041C4F2E0
:1054A0000101884212D0FFE70298006843F20041F0
:1054B000C4F20101884209D0FFE70298006845F272
:1054C0000001C4F20101884208D1FFE7009820F0F2
:1054D00080500199C96908430090FFE7029800686D
:1054E00042F60041C4F20101884212D0FFE702985F
:1054F000006843F20041C4F20101884209D0FFE78D
:105500000298006845F20001C4F2010188423AD1D4
:10551000FFE7009820F470000199896A40EA015081
:105520000090009820F080700199096A084300906B
:10553000009820F000700199496A08430090029891
:10554000006842F60041C4F20101884212D0FFE730
:105550000298006843F20041C4F20101884209D078
:10556000FFE70298006845F20001C4F20101884299
:1055700008D1FFE7009820F000500199C96A08435C
:105580000090FFE7FFE70098029909684864FFE789
:105590000299002081F83C00FFE700208DF80F0001
:1055A000FFE79DF80F0004B07047000081B0009045
:1055B00001B0704781B0009001B0704781B0009099
:1055C00001B0704785B003900291FFE7039890F80F
:1055D0003C00012804D1FFE702208DF81300A7E06A
:1055E0000399012081F83C00FFE7FFE703990220BF
:1055F00081F83D00039800684068019003980068B6
:10560000806800900398006842F60041C4F20101EE
:10561000884212D0FFE70398006843F20041C4F2C9
:105620000101884209D0FFE70398006845F20001B4
:10563000C4F2010188420AD1FFE7019820F470000A
:10564000019002984168019808430190FFE7019892
:105650004FF68F71CFF6FF51084001900298016814
:1056600001980843019001980399096848600398DC
:10567000006842F60041C4F2010188423CD0FFE7D5
:1056800003980068B0F1804F36D0FFE703980068B8
:1056900040F20041C4F2000188422DD0FFE7039898
:1056A000006840F60001C4F20001884224D0FFE700
:1056B0000398006840F60041C4F2000188421BD004
:1056C000FFE70398006843F20041C4F201018842F9
:1056D00012D0FFE70398006844F20001C4F2010110
:1056E000884209D0FFE70398006845F20001C4F240
:1056F000010188420ED1FFE7009820F08000009061
:1057000002988168009808430090009803990968FE
:105710008860FFE70399012081F83D00FFE70399C6
:10572000002081F83C00FFE700208DF81300FFE720
:105730009DF8130005B0704781B0009001B070472C
:1057400080B582B00090009820B9FFE701208DF865
:10575000070045E0009890F83D0040B9FFE7009948
:10576000002081F83C00009800F03EF8FFE7009927
:10577000022081F83D00009951F8040B04F000FE6E
:105780000099012081F84800FFE70099012081F885
:105790003E00009981F83F00009981F8400000998F
:1057A00081F84100009981F84200009981F8430096
:1057B000FFE7FFE70099012081F84400009981F894
:1057C0004500009981F84600009981F84700FFE7FD
:1057D0000099012081F83D0000208DF80700FFE7C7
:1057E0009DF8070002B080BD80B586B00590059891
:1057F000006840F60041C4F20001884219D1FFE779
:10580000FFE741F25800C4F20200016841F00801CC
:105810000160006800F0080004900498FFE732205F
:10582000019000221146FEF733FB0198FEF726FB9C
:105830003CE00598006841F20001C4F20001884292
:1058400019D1FFE7FFE741F25800C4F202000168F6
:1058500041F010010160006800F01000039003980F
:10586000FFE73620009000221146FEF711FB00985A
:10587000FEF704FB19E00598006844F20001C4F249
:105880000101884210D1FFE7FFE741F26000C4F256
:105890000200016841F480310160006800F480304A
:1058A00002900298FFE7FFE7FFE7FFE706B080BD41
:1058B00083B00190019890F83D00012804D0FFE7E3
:1058C00001208DF80B0072E00199022081F83D0063
:1058D00001980168C86840F00100C860019800683C
:1058E00042F60041C4F2010188423CD0FFE7019832
:1058F0000068B0F1804F36D0FFE70198006840F2B1
:105900000041C4F2000188422DD0FFE701980068F1
:1059100040F60001C4F20001884224D0FFE701985C
:10592000006840F60041C4F2000188421BD0FFE746
:105930000198006843F20041C4F20101884212D08C
:10594000FFE70198006844F20001C4F201018842B7
:1059500009D0FFE70198006845F20001C4F2010197
:10596000884219D1FFE70198006880680721C0F2DA
:10597000010108400090009806280CD0FFE700982D
:10598000B0F5803F07D0FFE701980168086840F054
:1059900001000860FFE706E001980168086840F030
:1059A00001000860FFE700208DF80B00FFE79DF87D
:1059B0000B0003B07047000081B0009000980168B0
:1059C000C86820F00100C860FFE700980068006A1E
:1059D00041F21111084210D1FFE700980068006AF7
:1059E00044F24441084207D1FFE700980168086883
:1059F00020F001000860FFE7FFE7FFE700990120C2
:105A000081F83D00002001B07047000080B586B0ED
:105A10000490039100208DF80B00FFE7049890F8A4
:105A20003C00012804D1FFE702208DF81700E7E0D1
:105A30000499012081F83C00FFE7FFE70499022068
:105A400081F83D00049800688068019001984FF645
:105A50008871CFF6CE7108400190019820F47F4004
:105A60000190019804990968886003980068009083
:105A7000002800F0AB80FFE70098102800F0A68017
:105A8000FFE70098202800F0A180FFE70098302869
:105A900000F09C80FFE70098402800F08A80FFE734
:105AA000009850286BD0FFE70098602874D0FFE77B
:105AB000009870283FD0FFE70098B0F5805F39D09C
:105AC000FFE70098B0F5005F4AD0FFE70098B0F517
:105AD000801F7BD0FFE70098B0F1101F76D0FFE762
