:020000040800F2
:1000000048160020510300084166000809570008FF
:100010003D660008D9160008996C00080000000031
:100020000000000000000000000000004966000819
:100030007917000800000000456600084D660008BA
:100040006B0300086B0300086B0300086B030008D8
:100050006B0300086B0300086B0300086B030008C8
:100060006B0300086B0300086B030008DD16000833
:10007000E9160008F5160008011700080D1700081A
:1000800019170008251700086B0300086B03000808
:100090006B0300086B0300086B0300086B03000888
:1000A0006B0300086B030008656600086B0300081B
:1000B0006B0300086B0300086B0300080D57000872
:1000C0006B0300086B0300086B0300086B03000858
:1000D0006B030008756C0008816C00088D6C0008CB
:1000E0006B0300086B0300086B0300086B03000838
:1000F0006B0300086B0300086B0300086B03000828
:100100006B0300086B030008716600086B030008AE
:10011000C96700086B0300087D6600086B030008D0
:100120003D17000849170008551700086117000817
:100130006D1700086B0300086B0300086B030008D1
:100140006B0300086B0300086B0300086B030008D7
:100150006B0300086B0300086B0300086B030008C7
:100160006B0300086B0300086B0300086B030008B7
:100170006B0300086B0300086B0300086B030008A7
:100180006B0300086B0300086B0300086B03000897
:100190006B030008000000006B0300086B030008FD
:1001A0006B0300086B0300086B0300086B03000877
:1001B0006B0300086B0300086B0300086B03000867
:1001C000311700086B0300086B0300086B0300087D
:1001D0006B0300086B03000800F002F800F0A8F8B9
:1001E00014A696E8000CB244B344DA4501D100F0FD
:1001F0009FF8BAE80F000FA696E83000A5EB0405BB
:1002000004EB0607AAEB0704A7F101074FEA15154F
:100210004FEA3414A4F10104AC4201D300F088F891
:1002200013F0010F18BFFB1A43F0010300F001F8AF
:10023000DBE71847E488000004890000103A24BF77
:1002400078C878C1FAD8520724BF30C830C144BF3B
:1002500004680C6070470000704700000023002411
:1002600000250026103A28BF78C1FBD8520728BFC6
:1002700030C148BF0B6070476E2900F0E7817029DC
:1002800000F02B83662908F07283652908F06F83DC
:10029000672908F06C83612908F06B8303681B0AE7
:1002A00028BF41F08001692900F09481642900F0A1
:1002B0009181752900F08E816F2900F0B98278292B
:1002C00000F0F782E92900F05382E42900F050821F
:1002D000F52900F04D82EF2900F0B682F82900F0F0
:1002E000F6820368DB0928BF41F08001632901F031
:1002F0000380732901F00880E32901F01380F329BA
:1003000001F01880002070471FB508F01EFB01F0B7
:100310005FF804000020002107F084FF401C6060AB
:100320000020002107F094FFE0601FBD10B510BD54
:1003300001F028F81146FFF7E7FF07F069FA01F02E
:10034000FDF803B4FFF7F2FF03BC01F03FF9000032
:100350000948804709480047FEE7FEE7FEE7FEE759
:10036000FEE7FEE7FEE7FEE7FEE7FEE70448054995
:10037000054A064B7047000051660008D901000885
:100380004810002048160020481200204812002083
:1003900053EA020C00F069802DE9F04B4FF00006A3
:1003A000002B1FBFB3FA83F503FA05F424FA05F610
:1003B0005E4012BF1643B2FA82F502FA05F4C5F1A7
:1003C00020051EBF22FA05FC44EA0C04203556EA3B
:1003D000044C4FEA144418BF641C4FF000084FF05F
:1003E0000009904271EB030C39D3002919BFB1FA0F
:1003F00081F701FA07F6B0FA80F700FA07F6C7F1BD
:1004000020071EBF20FA07FC46EA0C062037B6FB81
:10041000F4FCA7EB0507103F07F01F0BCBF12006FC
:100420002CFA06F60CFA0BFB44BFB3460026202F2D
:10043000A4BF5E464FF0000B5BEA060C08BF4FF00E
:10044000010B19EB0B0948EB0608ABFB027C06FB22
:1004500002CC0BFB03CCC01B71EB0C01C1E70B46BC
:10046000024641464846BDE8F08B13B5084318BF25
:100470004FF0FF300146AFF30080BDE81C407047ED
:100480007CB51D4616460C00009007D04142A142A3
:1004900002D32044401E01E04FF0FF30064B7B4466
:1004A0002A4669460190304600F0E9F8002C02D057
:1004B000009A002111707CBD030200004FF0000281
:1004C00000B5134694469646203922BFA0E80C504A
:1004D000A0E80C50B1F12001BFF4F7AF090728BF25
:1004E000A0E80C5048BF0CC05DF804EB890028BFA1
:1004F00040F8042B08BF704748BF20F8022B11F0CA
:10050000804F18BF00F8012B704770477047704745
:1005100070B5044685690068C10601D5302600E043
:100520002026C00707D070BDD4E90121304690478E
:10053000206A401C20626D1EF6D570BD70B5044661
:1005400085690078C00707D170BDD4E9012120205A
:100550009047206A401C20626D1EF6D570BD096868
:100560004A0501D540B27047C905FCD500B27047B5
:1005700009684A0501D5C0B27047C905FCD580B2EB
:10058000704770B50C460546012A05D028788006CC
:1005900000D5EA69002302E0012305E05B1C9342D9
:1005A00002D2E05C0028F9D1A869E618C01AA86157
:1005B000286A184428622846FFF7AAFF04E0D5E914
:1005C000012114F8010B9047B442F8D32846FFF7F5
:1005D000B5FF70BD2DE9F04106460024106875296D
:1005E000314616A510D0FFF7BAFF002802DA4042C4
:1005F00013A507E031688A0701D512A502E0490773
:1006000004D511A5012401E0FFF7B2FF00210A2261
:1006100006F1240709E0B0FBF2FCB0FBF2F302FBA9
:100620001C00303078541846491C0028F3D123466A
:100630002A463046BDE8F04100F06FBA00000000E5
:100640002D0000002B00000020000000116802684F
:10065000006A530501D508700AE0D30501D508806A
:1006600006E0130603D5C217C1E9000200E00860E6
:100670000120704701694A1C02610878704700B583
:100680008FB0CDE901310021059105497944CDE9CB
:1006900003101146684600F02BF90FB000BD0000B2
:1006A000E5FFFFFFD1E900239A4202D2531C0B6001
:1006B000107070472DE9FF5F15468A460446DFF843
:1006C000AC80F8440027D8E900103E46CDE9001080
:1006D00010E03AF816106A4602A800F02FFE411CFE
:1006E00007D02178890603D5E269391891420DD8DF
:1006F0000744761C2078800602D5E069B84205DD03
:10070000AE42E6DB3AF816000028E2D1A069C01B31
:10071000A0612046FFF7FCFED8E90010CDE90010EB
:10072000002017E03AF818106A4602A800F006FE0A
:10073000B0F1FF3F81460BD000250DF1080B05E01D
:10074000D4E901211BF8050090476D1C4D45F7D3F6
:1007500008F10100B0428046E4DB206A38442062A0
:100760002046FFF7EBFEBDE8FF9F0000B2820000CD
:100770002DE9F0418046D21D22F007020025D2E982
:100780000002F52915A614D0011E72F1000106DA47
:100790000023D0EB030063EB020211A608E0D8F8B7
:1007A00000108B0701D50FA602E0490701D50EA660
:1007B00001251146002408F1240704E000F068F93F
:1007C00030323A55641C50EA0102F7D12B463246CA
:1007D00021464046BDE8F04100F09FB9000000000E
:1007E0002D0000002B0000002000000030B400218C
:1007F00000F1240408E002F00705D208303542EA8F
:100800004372DB086554491C52EA0305F3D10468BE
:10081000002310A2250708D504F020040C4304D0BF
:10082000C46901230CA2641EC46130BC00F075B918
:1008300010B5044621461068FFF79AFE024620468E
:10084000BDE810400023D1E7D21D22F00701D1E915
:100850000023CBE70000000030000000F0B40D469C
:100860000188090502D5214C7C4402E01F4C7C44E0
:100870000E34002100F1240608E002F00F071209EF
:10088000E75D42EA03721B097754491C52EA0307E9
:10089000F3D102780023120704D5702D06D009B1D8
:1008A000022311342246F0BC00F037B90123103482
:1008B000F8E770B504460D4621461068FFF758FE6C
:1008C000024629462046BDE870400023C6E7D21DF7
:1008D00022F00703D3E90023C0E70368126843F05E
:1008E000200303600823C3610023B7E714810000DD
:1008F0002DE9F05F894604464FF0000ADFF874B135
:10090000FB44C0F820A02046E1688847002874D046
:10091000252806D0D4E901219047206A401C206296
:10092000F1E700265F462046E16888472028054613
:1009300007DB312D05D2781910F8200C08B10643D9
:10094000F1E7B00701D526F00406C4F81CA0002783
:10095000C4F818A02A2D09D0284607F05BFC38B34C
:1009600004EB8708303DC8F8185019E059F8041B0B
:10097000204604EB87029161E1688847012F054614
:1009800018D1E069002820DA26F020061DE0D8F80A
:10099000180000EB800005EB40003038C8F8180064
:1009A0002046E1688847054607F034FC0028EED170
:1009B000012F0AD02E2D08D12046E16888477F1CE0
:1009C0000546022F46F02006C4DBA069002803DAA2
:1009D000404246F00106A061F00701D026F0100663
:1009E0006C2D0BD0682D09D04C2D39D06A2D35D007
:1009F000742D35D07A2D33D016E038E0E1682F46DB
:100A000020468847B842054609D16C2F26D04FF4BE
:100A10008060E168064320468847054604E06C2F65
:100A20001AD04FF4807006430DB3A5F14100192888
:100A300002D8203546F400664A46294620462660FC
:100A40004E46FFF719FC80B101280BD0F61D26F0A9
:100A5000070000F1080956E74020E4E78020D8E7C6
:100A60000020D6E706F104094DE7284652E7206A40
:100A7000BDE8F09FA48000000048704710000020EF
:100A800010B500F0A5FC001D10BD00BF9977000057
:100A900030B5B0F10A0271F100034FEA900E4EEA50
:100AA000817EB0EB0E0061EB91014FEA101E4EEA21
:100AB000017E10EB0E0041EB11114FEA102E4EEAB1
:100AC000016E10EB0E0041EB11214FEA104E4EEA81
:100AD000014E10EB0E0041EB1141401841F10001B5
:100AE0004FEAD00040EA41704FEAD1014FEA810459
:100AF00044EA907410EB800544EB01046D1944EB5B
:100B00000404521BA3414FF0000348BF0A3200D532
:100B100030BD401C41F1000130BD2DE9F0470D46CC
:100B200099469246044600F124080168880604D5D7
:100B3000E06921F01001216000E00120A84201DD00
:100B4000471B00E00027A1697A1902EB0900081A87
:100B5000A0612078C00602D42046FFF7D9FC002609
:100B600008E0D4E901211AF806009047206A401CE9
:100B7000761C20624E45F4DB2078C0060AD520465C
:100B8000FFF7C6FC06E0D4E9012130209047206A37
:100B9000401C2062381EA7F10107F4DC07E0D4E90D
:100BA000012118F805009047206A401C2062281E89
:100BB000A5F10105F3DC2046FFF7C0FC2078000614
:100BC00002D50220BDE8F0870120FBE72DE9FF4FA9
:100BD0000C461E464FF0FF378BB0D2E90001DDF81E
:100BE00060800A908A46C1F30A5505B93D46002146
:100BF00008464FF00000BAF1000F00F4400005DA9B
:100C000000EB80004FF4400101EA50004FEA905998
:100C1000B9F1010F00DDB9460A9850EA4A000ED03A
:100C200044F61050A5F2FF3545432F14B8F1000FDC
:100C30001ED07542291E1EDDC9F100021CE0B8F16C
:100C4000010F4FF0000001D0302103E0F24305E036
:100C50002154401CB042FBDB3046002200212154CD
:100C60000B99C1F80880C1E900200FB0BDE8F08FF2
:100C7000BD1B6D1CDEE74A4600DA694206A800F09B
:100C8000EBFB06AB93E8070003AB83E80700504695
:100C90000A9906F0DEFE8DE80700A0F500501F3827
:100CA00000900398002D0ADD42F21F014A460844D5
:100CB000002303A90390684607F048F909E0A0F56E
:100CC00000504A461F38002303A90390684607F0E6
:100CD00052F98DE807000004000C03D04FF0FF30FC
:100CE000410800E01046B8F1000F03D00022009246
:100CF00015461EE0751E05D4FFF7CAFE3032625558
:100D00006D1EF9D5B3460122084302D000227F1C94
:100D100004E02078302801D100227F1E002A0997A4
:100D200084D01DE0112D07DAFFF7B2FE3032625594
:100D30006D1C50EA0102F5D1084302D00098C8B1F9
:100D40000EE00021681E05E0235C625C63542254BF
:100D5000401E491C8142F7DBAB46A81B401E099090
:100D6000002004F80B000B98099AC0F80880C0E92D
:100D7000002B7AE711264FF0000857E72DE9F04FD6
:100D800088460446D21D22F0070191B0D1E9000146
:100D9000CDE90A0107F026FA02460B98C00F01D0F0
:100DA0002D2007E02068810701D52B2002E02021BB
:100DB00001EAC000032A099001D0072A05DB034697
:100DC0004146204600F008FB0BE12078800601D563
:100DD000E06900E00620B8F1650F814606D0B8F161
:100DE000660F18D0B8F1670F70D131E00020B9F16B
:100DF000110F009001DB112301E009F101030AAAA0
:100E000001A90CA8FFF7E2FEDDE90C70002609F14C
:100E10000105834647E001204B4600904FF0004714
:100E20000AAA01A90CA8FFF7D1FEDDE90DB00C99C3
:100E30005D46002610B909F101000D18B9EB050057
:100E400003D4C0F1FF3609F10105A5EB09002BE041
:100E5000B9F1010F01DA4FF001090020B9F1110FCA
:100E60000090484601DD112300E003460AAA01A9CB
:100E70000CA8FFF7ABFEDDE90C704D46002683465B
:100E8000207800070AD4AB4500DA5D4601A8012DA1
:100E900004DD411911F8011C302907D04F4502DA51
:100EA00017F1040F04DA012082460FE06D1EEEE711
:100EB000002F02DCED1B3E4403E0781CA84200DD5D
:100EC0007D1CB81B00F1010A4FF000472078000795
:100ED00003D4AA4501DB4FF0FF3A0021B7F1004FE0
:100EE0000DF143088DF8431024D002202B23002F4E
:100EF00001DA7F422D230A21021EA0F1010000DC4D
:100F00005FB197FBF1FC97FBF1F201FB1C7C1746EC
:100F10000CF1300C08F801CDEEE7A8F101000370E8
:100F20002188090501D5452100E06521A0F10108CE
:100F300000F8011C09980FA9A1EB0807FF1D00B1DB
:100F40000120411901EBEA70A1693844081A401EDA
:100F5000A0612078C00602D42046FFF7D9FA09988C
:100F600028B1D4E901219047206A401C20622078F2
:100F7000C00622D52046FFF7CBFA1EE0002E04DB88
:100F8000B34502DD01A8805D00E03020D4E90121F5
:100F90009047206A401C2062761CAAF101005FEA9B
:100FA000000A0AD100F014FAC0680168405CD4E974
:100FB00001219047206A401C2062281EA5F10105EE
:100FC000DCDC07E0D4E9012118F8010B9047206A26
:100FD000401C2062381EA7F10107F3DC2046FFF712
:100FE000ADFA032011B041E62DE9F04F04460D465D
:100FF000D21D22F0070089B0D0E900974846394653
:1010000007F0F0F80246F80F01D02D2307E0206822
:10101000810701D52B2302E0202101EAC0038DF8CE
:1010200020300BB1012000E00020032A824601D0CD
:10103000072A04DB2946204600F0CEF93FE120785C
:10104000800601D40D2500E0E569C7F30A560D2D91
:1010500049DA00214FEA175B08464FF00000002FE5
:1010600000F4400007DA00EB80004FF4400100EB91
:10107000D07001EA60008115012901DD4FF0FF31D8
:1010800000224FEA850CBCF1180F06D31346ACF1D1
:1010900018004FF08052C24003E04FF4801323FA4F
:1010A0000CF30CF10C0CBCF1200F04D3ACF1200CB0
:1010B00009FA0CF001E007FA0CF000294FF00048A3
:1010C00001DD18B90FE00ED140450CD319EB020930
:1010D0005F4121B9404502D19F4329EA0209BBEB98
:1010E000175F00D0761C2088000502D57B48784425
:1010F00002E07A487844193808AA302302F80A3006
:10110000037C0AF10101002E0AF1020A53546A46D7
:1011100002DC4FF0300101E04FF031014FF00108E7
:101120008DF8001002D0A6F2FF3603E059EA47011D
:1011300000D06B4E002D02DC2178090704D54FF05A
:1011400002082E218DF80110C44600210BE0C7F3E0
:1011500003433F01C35C491C6D1E02F8083005299A
:1011600008F1010801DA002DF1DC00210CE000EBB0
:101170001973491C1B786D1E082902F808304FEAC4
:10118000091908F1010801DA002DF0DC21688B064D
:1011900002D516E0A8F10108E04505DD02EB0803E1
:1011A00013F8013C302BF5D0B8F1000F09DD02EB4C
:1011B000080313F8013C2E2B03D1090701D4A8F131
:1011C0000108002D05DD3E2102F808106D1E08F112
:1011D0000108407C002E02F8080008F1010804DA3A
:1011E0002D20764202F8080002E02B2002F80800C9
:1011F0000A214FF47A70864208F101080BDB96FB56
:10120000F0F3303302F8083096FBF0F308F10108F0
:1012100000FB136601E0642E0CDB642096FBF0F308
:10122000303302F8083096FBF0F308F1010800FBB8
:10123000136601E00A2E06DB96FBF1F0303002F86F
:10124000080008F1010896FBF1F001FB1060303056
:1012500002F80800A16908F1010808EB050202EB99
:101260000A00081AA0612078C00602D42046FFF7C1
:101270004FF9216A08AE01EB0A00206204E0D4E9CC
:10128000012116F8010B9047BAF1010AF7D2207834
:10129000C00602D52046FFF73BF96E4609E016F876
:1012A000010B3E280FD0D4E901219047206A401C51
:1012B0002062B8F10108F2D22046FFF73FF909B0E9
:1012C0000320BDE8F08F206A2844206203E0D4E9BF
:1012D0000121302090476D1EEBD3F8E7DA7800004B
:1012E00002FCFFFF10B5436913B1AFF3008001E0CA
:1012F000FFF747F9012010BD127800F124010A70B0
:1013000000224A700122EDE711684FF0FF32E9E751
:1013100010B5436913B1AFF3008001E0FFF7CAF9DC
:10132000012010BD128800F1240182840022C284B1
:101330000122EDE711684FF0FF32E9E72DE9F041B6
:1013400016460C460546FFF79BFB036893F8010120
:10135000012807D0FF2C12D8185D80B101202C7015
:10136000BDE8F081D3F807013246214603F20713A6
:10137000C7182846BC46BDE8F041002360474FF03F
:10138000FF30EDE77546FFF777FBAE46050069468F
:10139000534620F00700854618B020B5FEF7E6FF5B
:1013A000BDE820404FF000064FF000074FF0000866
:1013B0004FF0000BAC46ACE8C009ACE8C009ACE8A3
:1013C000C009ACE8C00921F007018D467047000054
:1013D00000487047300000202DE9F0411F460446C8
:1013E00003260168072A01F4006004DB08B116A592
:1013F00005E016A503E008B115A500E015A521F04C
:1014000010002060A069C01EA0610FB1401EA06145
:101410002046FFF77DF84FB1D4E9012138469047C7
:10142000206A401C2062C01C206206E0206AFAE7A5
:10143000D4E9012115F8010B9047761EF8D2204619
:10144000FFF77CF8BDE8F0814E414E006E616E0002
:10145000494E4600696E66002DE9F0478146164602
:101460008AB0354878440DC88DE80D00324878447C
:10147000801C03AC0DC884E80D0041F69B30084485
:10148000372190FBF1F290FBF1F5A5F1800501FB0E
:1014900012041B3C02D56442012000E00020DFF86A
:1014A00098A080460027FA44AAF1BE0A0EE0E007A1
:1014B0000AD03246684607EB470101230AEB810157
:1014C00006F059FD8DE8070064107F1C002CEED15A
:1014D000194F7F44AE3F19E0E80715D007EB041021
:1014E0000DF1180A90E80E008AE80E00C068F0427C
:1014F00001D1981908903246012306A903A806F0E5
:101500003AFD03AB83E807006D10641C002DE3D1A6
:101510004FF0010332466946B8F1000F03A802D02C
:1015200006F014FD01E006F026FDC9E90001C9F846
:1015300008200AB0BDE8F087F475000010B5044635
:10154000AFF300802046BDE81040FEF7FABE000071
:1015500030B44FF0013C50F8042B51F8043BCCFA66
:1015600052F4D51A20D1FCB950F8042B51F8043BA1
:10157000CCFA52F4D51A17D1B4B950F8042B51F85B
:10158000043BCCFA52F4D51A0ED16CB950F8042BA6
:1015900051F8043BCCFA52F4D51A05D1002CDAD01C
:1015A00030BC4FF00000704729BAB1FA81F111F058
:1015B0001801D1F120008440F2D1CA40CB4012F092
:1015C000FF0213F0FF0330BCD01A70470149182006
:1015D000ABBEFEE726000200704700000146806AAD
:1015E000C36DC26D13F0500F07D0D20648BF00F094
:1015F00019BB406D426B0846104742F40071C1654B
:1016000001680B68CA681B0703D4910707D500F06F
:1016100005BB12F4406FFAD1C9688904F7D4C16DD3
:1016200021F48071C165C16DC90448BF00F0F6BAEC
:10163000C16D41F00101C16500F0F0BA806AC16D71
:1016400041F04001C165016E41F00401016600F006
:10165000E9BA0000806A00F0E3BA000070B5044601
:1016600000688168C90735D14FF6C076C7F6FF76A6
:10167000816806F17F02114209D0E06D40F0100050
:10168000E065206E40F001002066012070BD816899
:10169000314041F00101816000F090FF21680A684B
:1016A000D20717D1054603E021680868C00711D1A9
:1016B0008868C00704D18868304040F00100886025
:1016C00000F07CFF401B0328EED320680068C007B1
:1016D000EAD1D2E7002070BDFEE7000040F2A8404A
:1016E000C2F2000000F028BD40F20850C2F2000033
:1016F00000F022BD40F26850C2F2000000F01CBDB4
:1017000040F2C850C2F2000000F016BD40F228605E
:10171000C2F2000000F010BD40F28860C2F200008A
:1017200000F00ABD40F2E830C2F2000000F004BD53
:1017300040F24840C2F2000000F0FEBC40F26820D7
:10174000C2F2000000F0F8BC40F2C820C2F2000073
:1017500000F0F2BC40F22830C2F2000000F0ECBC15
:1017600040F28830C2F2000000F0E6BC40F20820EF
:10177000C2F2000000F0E0BC70470000EFF3108000
:1017800072B600BFFEE7000090F85820012A04BF9F
:101790000220704770B582B00122002380F85820E3
:1017A00001930093026840F2080CC5F2000CB2F1FC
:1017B000A04F0CF1F8050AD040F20043C5F2000337
:1017C0009A4207D10CF59F64002333B133E02C46D5
:1017D0001BB130E0002401236BBBA3689468234352
:1017E0005B0728D44FF4E063D1F800E0AA4208BFB9
:1017F0004FF44073B2F1A04F08BF4FF440735CF850
:101800000340BEF1000F24F460441AD04D6890F8F4
:10181000386042F4807245EA46352C4340F20015A8
:10182000C5F20005AA424CF8034019D1DCF80020AB
:10183000DCF800411BE0C16D41F02001C1650121D0
:1018400034E042F4807140F20012C5F2000291428D
:101850004CF8034018D1DCF80010DCF800211AE045
:10186000DCF80044DCF80055DCF800262C43224369
:10187000D2071AD15CF8032040F61F748968A2438E
:10188000114341EA0E010EE0DCF80024DCF80065AB
:10189000DCF8001632431143C90706D15CF8031087
:1018A00040F61F7291434CF803100021002280F88B
:1018B000582002B0BDE8704008467047F0B581B0CE
:1018C0000022009290F85820012A01D102217DE1E6
:1018D0000123076880F85830BB685B0734D4D1E92E
:1018E00000361F22C6F3012507EB85052C6B06F099
:1018F0001F06B240C3F3846324EA0202B3401A43D2
:101900002A63BA68BB6802F0040203F00803D21825
:1019100040F0AC800A68042607F1140306EAD25CA2
:10192000C2F340668D6853F82660C2F30454072260
:10193000A240B5F1004F26EA02060BD143F80C6035
:101940001A6842F000430DE0C16D41F02001C1650D
:10195000012138E105FA04F2324343F80C201A68F9
:1019600022F000437B61D1E90436FD68042B50D19D
:101970003A6E3A6E0B68C2F3846293FAA3F6B6FA33
:1019800086F65D0308BFC3F384664FF6FF73B24269
:10199000C0F2070303D13A6E22F000423A667A6E33
:1019A0007A6E0E68C2F3846296FAA6F5B5FA85F5EA
:1019B0001E4208BFC6F38465AA4203D17A6E22F0A4
:1019C00000427A66BA6EBA6E0E68C2F3846296FA04
:1019D000A6F5B5FA85F51E4208BFC6F38465AA428E
:1019E00003D1BA6E22F00042BA66FA6EFA6E0E6841
:1019F000C2F3846296FAA6F5B5FA85F51E4208BFD1
:101A0000C6F38465AA4231D1FA6E22F00042FA662A
:101A10002CE0062202EA950206FA02FC0E6807F1A3
:101A2000600555F823404FF20002C0F2FF3206F085
:101A3000F846224046EA0C06324342F0004245F89E
:101A400023200A698B6955F8226026F0807633439B
:101A500045F822300A690B7F55F82260012B26F0E9
:101A6000007608BF06F1007645F82260BA68D20712
:101A70003FD10C68CE680025C4F27F052346AE42F4
:101A8000D7F8B0206FF3DF4314BF9A431A43AE4236
:101A9000C7F8B0202DD14FF6FF7294FAA4F3C0F22C
:101AA0000702B3FA83F3144208BFA30E5A1C02F0D4
:101AB0001E0302F01F0201260025964002EB42029F
:101AC000CFF6206505EB0255354345F000750A2B2E
:101AD00038BF46EA0255C5F3406307EB83038A68C3
:101AE0005E69C5F304550724AC40A643AA403243BF
:101AF0005A610D680021C8F208010D4262D040F21F
:101B0000083EC5F2000E0EF58063AEF5027419466C
:101B1000A74204BF40F20831C5F20001B7F1A04F5F
:101B200004BF40F20831C5F200010E680022CCF279
:101B30002132954206F0E07C04D01022C9F2C002A6
:101B400095422ED132022CD440F20062C5F200023E
:101B5000974202D0B7F1A04F34D10A6822F0E07268
:101B600042EA0C0242F400020A6040F20001C2F2B2
:101B70000001096842F663528909C0F23E52A1FB96
:101B80000212910901EB41010C2202EB810100914B
:101B90000099B9B100990139009100990029F9D152
:101BA00010E00022CCF25272954212D10022B2EB28
:101BB0001C6F0ED10A6822F0E07242EA0C0242F079
:101BC00080720A600021002280F85820084601B087
:101BD000F0BD0021CCF684318D424FF0000108BFEA
:101BE00016F48002EFD1B7F1A04F0AD040F20011F5
:101BF000C5F200018F42E5D0391BB1FA81F14909E4
:101C000000E00121002918BF7346196821F0E07136
:101C100041EA0C0141F480011960D3E770470000EC
:101C2000704700007047000070B582B000210028A6
:101C3000019142D0C16D39B9044600F009F920463E
:101C40000021216684F858100268916889004FF6D7
:101C5000C071C5F6FF7102D593680B40936093681D
:101C6000DB001DD4936801F18051194041F080518F
:101C7000916040F20001C2F20001096842F663532C
:101C80008909C0F23E53A1FB03139909022303EB18
:101C9000410100BF0191019911B101990139F9E7A1
:101CA0009168C9000BD4C16D012641F01001C165D6
:101CB000016E41F00101016602E00126C4E0002648
:101CC0009368C46D03F0040304F010041B19C36D82
:101CD00017D123F481730233C3659368DB0736D1D0
:101CE00040F2001442F48073C5F2000440F2080C84
:101CF000A342C5F2000C08D1DCF80040DCF800314A
:101D00000BE043F0100201269DE0DCF800E4DCF873
:101D10000035DCF8004643EA0E032343DB0716D107
:101D20000CF1F8034FF4E064D0F804E09A4208BFE5
:101D30004FF44074B2F1A04F08BF4FF440745CF808
:101D4000043023F47C1343EA0E034CF80430437F41
:101D5000C46BD0E9021544EA43332B4390F8245076
:101D60001943012D41EA054306D1816A0025CFF6CA
:101D7000FE7505EB41410B43C46A24B1016B04F4C9
:101D8000787529430B43D16844F20705CFF6F07507
:101D900029401943D1601169436B21F04061194317
:101DA00011619168936801F0040103F00803C918F8
:101DB0003BD190F83810037F490041EA8331D36862
:101DC00044F20205AB431943D160036914694BB176
:101DD00044F480311161D2F8C01043F6FF75A94375
:101DE0000B4308E024F480311161D2F8C01043F6AF
:101DF000FF7321EA0303C2F8C03090F84010136962
:101E000001290FD140F2FD7123EA010CD0E911350F
:101E1000D0E9134143EA0C032B432343194341F018
:101E2000010301E023F0010313614169136B0129F0
:101E300023F00F0302D1016A01390B431363C26D12
:101E4000012161F30102C265304602B070BD00009D
:101E500070B59CB0044600201B90CDE91900CDE977
:101E6000170002A85421FEF729FB206840F2004128
:101E7000C5F20001884201D01CB070BD4FF4803023
:101E800002904FF00040149002A800F085FF002857
:101E900018BFFFF773FC41F24C00C4F20200016866
:101EA000002641F480410160016801F48041019104
:101EB0000199016841F008010160006817A900F06C
:101EC0000800019001984FF480401790032018906B
:101ED00040F60040C4F60000199600F093FA40F274
:101EE000082540F25840C2F20005C4F20200252144
:101EF00080224FF480734FF4806C85E843002846BD
:101F0000C5E90362C5E9053CC5E9076600F062F969
:101F1000002818BFFFF732FC6565AC621CB070BDCD
:101F20002DE9F04140F200160368C5F200064FF4B7
:101F3000C167B34208BF4FF40277B3F1A04F08BFA7
:101F40004FF40277BF599D686D0703D490F858503D
:101F5000012D02D10220BDE8F08106F5A06407F052
:101F60001F070125A34280F8585018BF002F0AD13F
:101F70000D4690460446FFF771FB70B1002184F8CE
:101F80005810BDE8F081052FF2D0092FF0D00021C4
:101F900080F858100120BDE8F0812168E06D40F61E
:101FA00001739843224600F58070B142E06509D084
:101FB00040F20050C5F200008142084608BF06F515
:101FC000407001E04FF0A040884218BF002F03D1BD
:101FD000D06D20F48010D065D06D41F2DD57C00483
:101FE0004FF0000044BF106E20F006001066506DE8
:101FF00041F25566C0F60007C0F6000641F23D64A6
:102000000023C0F60004C0E90B761C2744630F6070
:1020100082F858304B68144643F010034B60CB688D
:102020002A4643F00103CB604031434600F064F997
:1020300021684FF6C0738A68C7F6FF731A400432EE
:102040008A60BDE8F0810000014690F82500022872
:1020500027D180B50868D1E910CE8A6C036823F0D7
:102060000E030360136823F480731360026822F088
:10207000010202600EF01F00012202FA00F0CCF80B
:102080000400D1E913205060486D30B1026822F499
:1020900080720260D1E9160242600020BDE88040F3
:1020A00002E00420C8630120012281F825200022DB
:1020B00081F824207047000090F82510022930D1C3
:1020C00080B50168D0E910CE826C0B6823F00E0356
:1020D0000B600B6823F001030B60116821F4807121
:1020E00011600EF01F02012101FA02F2CCF8042067
:1020F000D0E913325A60426D32B1136823F4807311
:102100001360D0E91623536080F82510826B0021FC
:1021100080F824100AB190470021BDE880400846AD
:1021200070470421C1630121002280F8251080F846
:102130002420084670470000B0B5D0E910C30268FB
:10214000DCF8001003F01F030424D2F800E09C40E8
:102150000C4218BF1EF004051BD102249C400C4207
:1021600018BF1EF0020520D1D94009071CD51EF06A
:10217000080108BFB0BD116821F00E0111600121F6
:1021800001FA03F2CCF80420C16380F82510416BFA
:1021900018E01168890603D4116821F00401116068
:1021A000CCF80440016B91B9B0BD1168890606D422
:1021B000116821F00A011160012180F82510CCF886
:1021C0000440C16A0022002980F82420ECD0BDE838
:1021D000B040084700284FF0010C00F08A802DE93C
:1021E000F04F0021C4F2020103684FF6F83201F506
:1021F000816ECBF6FD72734538BF02F580624CF6F6
:10220000CD441A44CCF6CC44A2FB042903F0FC02D2
:10221000A2F10802A2FB042800F1080B01F580647A
:102220006FF003069BE8040C3CBF0024C4F20204D8
:1022300001F5026506EA9906734538BF01F50065A8
:10224000C0E91046022480F825401C6847F6F07764
:1022500024EA0707D0E9054147EA0A0747EA0B07DE
:10226000D0E907E93C43214341EA0E0141EA090173
:10227000114319600021C4F2020101F50861C16433
:10228000C8F3041173190CFA01F58364B2F5804F99
:10229000056504BF00214160476840F68401FAB239
:1022A0001A607B1EC4F20201032B0D6012D8013AA2
:1022B00001EB8203002702F01F02012643F87C7F16
:1022C00001F1BC0706FA02F2C0E91537C265C1F890
:1022D000C02003E00021C0E91511C1654FF0000CDA
:1022E0000121C0F83CC080F8251080F824C0BDE86A
:1022F000F04F60467047000090F824C0BCF1010F19
:1023000043D04FF0010C80F824C090F825C0BCF1F8
:10231000010F37D12DE9F0414FF0020C80F825C0B4
:102320004FF0000CC0F83CC0D0F800C000F14C0EDB
:102330009EE83040DCF80060BEF1000F26F0010698
:10234000CCF8006065601CBFD0E916456560D0E937
:102350001056846806F01F060127D0F8308007FA6F
:1023600006F66E60CCF80430102C0B4604BF134602
:102370000A46B8F1000FCCF80830CCF80C2006D093
:102380000E210BE0002180F8241002207047DCF8B9
:10239000001021F00401CCF800100A21DCF8002024
:1023A0001143CCF80010806C0168C90303D50168A3
:1023B00041F480710160BEF1000F05D0DEF800002D
:1023C00040F48070CEF80000DCF8000040F001001E
:1023D000CCF800000020BDE8F0810000B0B5044654
:1023E00000F0ECF8054640F20800C2F20000006878
:1023F000611C18BF044400BF00F0E0F8401BA0427D
:10240000FAD3B0BD2DE9F04F83B00E68002E00F076
:10241000C68000F1200241F2004C009200F13847E2
:10242000C4F6000C06224FEAB725604508BF052216
:10243000052D38BF4FEAB722002500274FF0000ACC
:1024400001920AE00E680AF1010A36FA0AF207F16F
:10245000020705F1040500F0A280012202FA0AFC3D
:1024600016EA0C09EED0D1F804B003220BF00308F1
:10247000A8F10106012E02FA07F610D8D0F808E0FC
:10248000CC682EEA0602BC40224382604268CBF34D
:10249000001422EA0C0204FA0AF422434260B8F162
:1024A000030F1ED0C2688C68B243BC402243B8F10F
:1024B000020FC26015D16FF00302009C02EA5A0BB2
:1024C00054F80BC005F01C030F22D1F8108002FA5B
:1024D00003FE2CEA0E0C08FA03F343EA0C0344F85B
:1024E0000B3002684B68B24303F00306BE40324330
:1024F00013F4403F0260A5D041F26003C4F202032E
:102500001A6840F2004E42F001021A601A68C4F2E2
:10251000010E02F001020292029A2AF003024FF623
:10252000084C7244CFF6FF7C52F80C3005F00C06D4
:102530000F24B440A343019C04FA06F6334342F847
:102540000C30DEF808204B6842EA090640F20C4CD9
:10255000DC0258BF22EA0906CEF80860C4F2010C7A
:10256000DCF800209C0242EA090658BF22EA09066C
:10257000CCF80060DEF804209C0342EA090658BF4C
:1025800022EA0906CEF80460DEF80020DB0342EA06
:10259000090658BF22EA0906CEF8006052E703B0E8
:1025A000BDE8F08F0069084018BF012070470000A7
:1025B0001823002A08BF2823C150704741F2440065
:1025C000C2F200000068704790F84120202A03D131
:1025D00090F84020012A01D102207047242280F87F
:1025E00041200268136823F001031360136823F489
:1025F00080531360136819431160116841F00101A1
:102600001160202180F84110002180F84010002046
:102610007047000090F84120202A03D190F8402014
:10262000012A01D102207047242280F8412002684B
:10263000136823F001031360136823F4706343EA03
:1026400001211160116841F001011160202180F821
:102650004110002180F84010002070470268436B51
:1026600091691268002B08BF70471847002804BF03
:102670000120704710B590F8411031B9002180F861
:102680004010044600F03EF92046242180F8411015
:1026900090E80610C4680B6822F0706223F0010312
:1026A0000B600A618A68012C22F400428A604FF4B0
:1026B000044208BF4FF4004242EA0C02022C8A6036
:1026C00004BF4FF400624A604A6800F1100C42F007
:1026D000007242F400424A60CA6822F40042CA60B2
:1026E0009CE81C101A4342EA0422CA60026A42EAC9
:1026F0000C020A600A6842F001020A6000212022EE
:10270000416480F84120016380F84210002010BD30
:102710002DE9F04F83B0044690F84100202807D1FE
:102720000C9D4DB10D9F3FB194F84000012807D199
:10273000022003B0BDE8F08F4FF400706064C1E088
:1027400001208A469146029384F84000FFF736FF45
:1027500021680646896909040AD500BFFFF72EFFE4
:10276000801B1A2880F0A280206880690004F5D4BC
:10277000222084F8410040204FF0000884F84200F5
:10278000C4F8448065626785DDF838B0029B204656
:1027900051464A46C4F83480CDE900B603F05EF8ED
:1027A00010B184F840808DE0618D49F6000040F260
:1027B0000008CFF60040B1F5807FC0F2FF180BD3C0
:1027C000FF2121852168524651F8043F6FF39F2273
:1027D000034008F510570EE0628D216822855346AC
:1027E00051F8047F6FF39F23D2B243EA024307EA12
:1027F000000208F592371A433A436FF39F2A0BF110
:1028000001054FF0FF0900F580670A6010E0618D57
:102810002068218550F8042FC9B24AEA01413A40A4
:102820004FF00073114319430160608D00284DD0B3
:102830002068806940070AD4002DF9D0FFF7BEFE5A
:10284000BBF1000F32D0801B5845F1D92EE0206833
:10285000616A406A0870606A218D01306062481EBA
:102860002085618D01396185618D0029DDD00004ED
:10287000DBD100BF2068806900060AD4002DF9D0A2
:10288000FFF79CFEBBF1000F10D0801B5845F1D91B
:102890000CE0608DB0F5807FB9D32068A4F8289053
:1028A00050F8041F524639404346BBE7606C40F085
:1028B00020006064202084F84100002084F8420059
:1028C00084F84000012003B0BDE8F08F204659464F
:1028D000324603F03FF80028F4D120682021C1617E
:1028E00042684EF60003CFF600631A4042600020B3
:1028F00084F8411084F8420084F8400003B0BDE839
:10290000F08F00002DE9F0479CB00446002502A896
:1029100054211B95CDE91955CDE91755FDF7CEFD8D
:10292000206845F60001C4F20001884200F093805F
:1029300045F20041C4F20001884240F0F28040209C
:102940000290002602A8099600F026FA002818BF77
:10295000FEF714FF41F24C07C4F20207386817ADC6
:1029600040F001003860386840F2084800F001008B
:102970000190019838684FF0120940F00200386069
:1029800038684FF0040A00F00200019001984FF4FB
:10299000004017904FF090402946C4F20208CDE95C
:1029A00018961A96CDF86CA0FFF72CFD4FF4007026
:1029B000CDE9170940F20040C4F600002946CDE9F0
:1029C0001966CDF86CA0FFF71DFDF86840F2682588
:1029D00040F40010F860F868C2F2000500F400103E
:1029E0000190019810274FF080092846C5E900871B
:1029F000C5E90266C5E90496C5E906662E62FFF7D9
:102A0000E9FB002818BFFEF7B9FEE563AC6240F2AF
:102A1000C82508F11400C2F200051121002285E842
:102A200083002846C5E90329C5E90522C5E907222F
:102A3000FFF7D0FB002818BFFEF7A0FE1F200021E3
:102A40000022A563AC6200F0E7F81F2000F0D2F886
:102A50001CB0BDE8F0874FF0800802A8CDF80880D0
:102A60000A9500F099F9002818BFFEF787FE41F299
:102A70004C05C4F20205286840F2084940F0010004
:102A800028602868122700F00100019001984FF497
:102A900040701790042000261B9017A94FF090401B
:102AA000C4F202091897CDE91966FFF7ABFCE86894
:102AB00040F48000E860E86840F2283500F48000C7
:102AC0000190019809F12800C2F20005C5E900074C
:102AD0002846C5E90266C5E90486C5E906662E6290
:102AE000FFF778FB002818BFFEF748FEE563AC62ED
:102AF00040F2883509F13C00C2F200051321102292
:102B0000802385E847002846C5E90436C5E90666FE
:102B10002E62FFF75FFB002818BFFEF72FFEA563AC
:102B2000AC621CB0BDE8F08740F2080041F24401FD
:102B3000C2F20000C2F2000100680A681044086096
:102B40007047000080B5032000F092F80F2000F0DD
:102B500009F800281CBF012080BD00F031F80020DA
:102B600080BD000040F20801C2F20001096800299E
:102B700004BF0120704710B5044640F20000C2F2C5
:102B800000004FF47A720068B2FBF1F1B0FBF1F093
:102B900000F080FF01460F2C4FF001000ED80029F5
:102BA00018BF10BD4FF0FF302146002200F034F86E
:102BB00040F20C010020C2F200010C6010BD0000C8
:102BC00082B041F25800C4F20200816841F0010174
:102BD0008160816801F0010101910199016841F072
:102BE00080510160006800F080500090009802B0B1
:102BF00000F0C8B8002848BF704700F01F0101224C
:102C000002FA01F11C2202EAD0004EF20012CEF2CA
:102C1000000281507047000010B54EF60C5CCEF2F9
:102C2000000CDCF80030C3F3022E8EF00704042CF5
:102C300028BF0424BEF103034FF0FF3E0EFA04F454
:102C400038BF0023A14399400EFA03F39A4311437E
:102C500000F1604200F00F03090102F56442043BF9
:102C60006344002848BF03F10C02117010BD00003E
:102C70004EF60C51CEF200010A684FF6FF031A40DF
:102C800060F30A2242F0806040F0FD7008607047F7
:102C900047F2000CC4F2000CDCF80020B0F5007F15
:102CA00035D0002866D1DCF8800002F4C06220F440
:102CB0008070B2F5806FCCF8800026D1DCF800007F
:102CC000012262F34A20CCF8000040F20000C2F278
:102CD00000000068322358434DF68363C4F21B336F
:102CE000A0FB030302EB9340002200BFDCF81410AA
:102CF000013842F10003490501D5002BF6D1DCF87B
:102D00001400400544BF0320704700207047DCF8E2
:102D1000800002F4C06140F48070B1F5806FCCF89F
:102D20008000F2D1DCF80000012161F34A20CCF8E8
:102D3000000040F20000C2F200000068322250435E
:102D40004DF68362C4F21B32A0FB020201EB9240FB
:102D5000002200BFDCF81410013842F100034905DD
:102D600001D5002BF6D1DCF81400400544BF032048
:102D70007047CAE7022060F34A22CCF80020002006
:102D80007047000047F20800C4F20000016841F4F7
:102D900080410160704700002DE9F04381B0814619
:102DA000807841F288060007C4F2020601D40020B0
:102DB0004AE056F8300C5FEAC0080BD456F8300CE5
:102DC00040F0805046F8300C56F8300C00F080503F
:102DD0000090009847F20004C4F20004206840F418
:102DE00080702060FFF7EAFB054600BF2068C7053A
:102DF00008D4FFF7E3FB401B0328F7D30320002F81
:102E000003D418E00020002F15D5B16811F44071EB
:102E100000F02981D9F85020914240F02981C9075A
:102E200040F0358138B9B068D9F8501020F44070BE
:102E30000843B0600020B8F1000F05D456F8301CEC
:102E400021F0805146F8301CD9F80010CA0716D17D
:102E50008A071DD44A0724D40A072BD4CA0632D4C1
:102E60008A0639D44A0640D40A0647D4CA054ED445
:102E70008A0355D48A055CD44A0563D472E032686B
:102E8000D9F8043022F003021A4332608A07E1D5F0
:102E90003268D9F8083022F00C021A4332604A072F
:102EA000DAD53268D9F80C3022F030021A43326099
:102EB0000A07D3D53268D9F8103022F0C0021A437D
:102EC0003260CA06CCD53268D9F8143022F4407288
:102ED0001A4332608A06C5D53268D9F8183022F410
:102EE00040621A4332604A06BED53268D9F81C30B7
:102EF00022F440521A4332600A06B7D53268D9F834
:102F0000203022F440421A433260CA05B0D53268FC
:102F1000D9F8243022F440321A4332608A03A9D50A
:102F20007269D9F8283022F003021A4372618A05C7
:102F3000A2D53268D9F82C3022F440221A433260EC
:102F40004A050FD53268D9F8303022F440121A43BE
:102F5000B3F5801F326005D156F87C2C42F4801204
:102F600046F87C2C0A050FD53268D9F8343022F4A3
:102F700040021A43B3F5800F326005D156F87C2C1D
:102F800042F4801246F87C2CCA040FD53268D9F876
:102F9000383022F040721A43B3F1807F326005D19D
:102FA00056F87C2C42F4801246F87C2C8A040FD50B
:102FB0003268D9F83C3022F040621A43B3F1006F16
:102FC000326005D156F87C2C42F4801246F87C2CF5
:102FD0004A040FD53268D9F8403022F040621A43D3
:102FE000B3F1006F326005D156F87C2C42F48012A8
:102FF00046F87C2C0A040FD53268D9F8443022F008
:1030000040521A43B3F1805F326005D156F87C2CF0
:1030100042F4803246F87C2CCA030FD53268D9F8C6
:10302000483022F040421A43B3F1804F326005D15C
:1030300056F87C2C42F4803246F87C2C49030FD59C
:103040007169D9F84C2021F440111143B2F5001FE9
:10305000716105D156F87C1C41F4801146F87C1C46
:1030600001B0BDE8F0830021C9073FF4DBAE0EE0FC
:10307000B168B26821F4407142F48032B260B26843
:1030800022F48032B260B160C9073FF4CBAE04468F
:10309000FFF794FA054641F2893700BFB068800710
:1030A00009D4FFF78BFA401BB842F7D3032000285E
:1030B0007FF4C1AEB7E6204600287FF4BCAEB2E68E
:1030C0002DE9F047002800F0FE8042F2000AC4F229
:1030D000020A0446DAF800000D4600F00F008842AC
:1030E0000DD2DAF8000020F00F002843CAF80000E3
:1030F000DAF8000000F00F00A84240F0E4802168F8
:1031000041F20808C807C4F202080CD14FF00009C8
:10311000206881074BD4B9F1000F61D0D8F80000C6
:1031200020F0F0005AE0606858F8082C022800F0FF
:10313000C880032840F0CA80920140F1C480D8F8CA
:103140000420D8F8043042F20046C3F3031302F01F
:103150000302D8F804700133C0F2F406032A04BF56
:1031600041F20026C0F27A06B6FBF3F2D8F804303A
:10317000C7F306277A43C3F34163022707EB4303F0
:10318000B2FBF3F24BF20043C0F2C4439A4240F266
:10319000E480D8F8002012F0F00F00F0D480890706
:1031A00040F1DB80A168002940F0D780CBE04107E7
:1031B00005D5D8F8001041F4E061C8F80010000708
:1031C00006D5D8F80000072161F30D20C8F80000EB
:1031D000D8F80000A16820F0F0000843C8F800000B
:1031E000DAF8000000F00F00A84219D9DAF8000060
:1031F00020F00F002843CAF80000FFF7DFF9064669
:1032000041F28837DAF8000000F00F00A84207D03A
:10321000FFF7D4F9801BB842F4D90320BDE8F0874A
:103220002068410707D5D8F80010E26821F4E06172
:103230001143C8F80010000708D5D8F8000021692C
:1032400020F4605040EAC100C8F80000D8F800003F
:1032500042F20041C0F2F40100F00C0004280846DC
:1032600000F09C80D8F8000000F00C00082841F223
:103270000020C0F27A0000F09180D8F8002002F01F
:103280000C020C2A40F08980D8F80420D8F80430C9
:1032900002F00302C3F30313D8F804700133032AC6
:1032A00008BF0146B1FBF3F0D8F80410C7F30627B6
:1032B000C1F341610222784302EB4101B0FBF1F01E
:1032C0006CE0910304D40120BDE8F0875105FAD5E4
:1032D000D8F8001001F00C0104293ED0D8F80010F5
:1032E00001F00C01082938D0D8F8001001F00C01C9
:1032F0000C2932D1D8F80410D8F8042042F2004743
:10330000C2F3031201F00301D8F804300132C0F215
:10331000F407032904BF41F20027C0F27A07B7FB84
:10332000F2F1D8F80420C3F306235943C2F34162F3
:10333000022303EB4202B1FBF2F14BF20042C0F276
:10334000C442914209D9D8F80010082262F307114B
:103350004FF00109C8F8001001E04FF00009D8F85B
:10336000001021F003010843C8F80000FFF726F918
:10337000064641F2883700BFD8F80000616800F0C7
:103380000C00B0EB810F3FF4C3AEFFF717F9801BC1
:10339000B842F1D90320BDE8F0870020D8F800102A
:1033A00048F67422C1F30311C0F60002515C40F2EA
:1033B000000201F01F0120FA01F140F20C00C2F2FC
:1033C00000000068C2F200021160BDE8F047FFF79C
:1033D000C9BB000040F2000041F20801C2F2000047
:1033E000C4F202010068096848F68422C1F3022190
:1033F000C0F60002515C01F01F01C8407047000098
:1034000040F2000041F20801C2F20000C4F20201E1
:103410000068096848F68422C1F3C221C0F60002A0
:10342000515C01F01F01C8407047000041F20C01DF
:10343000C4F2020151F8040C42F20042C0F2F4025C
:1034400000F00C000428104608BF704751F8040C27
:1034500000F00C00082841F20020C0F27A0025D0CC
:1034600051F8043C03F00C030C2B1CBF00207047E8
:1034700080B5D1F800C00B680CF0030CC3F3031E39
:103480000B680EF1010EBCF1030F08BF024609687C
:10349000B2FBFEF0C3F30623C1F34161022258439D
:1034A00002EB4101B0FBF1F0BDE880407047000045
:1034B000002804BF012070472DE9F04182B0044686
:1034C000007841F20006C007C4F202061DD1207840
:1034D000800737D4207800075AD42078400778D462
:1034E0002078800600F1BF80E069002800F0CD81DF
:1034F000B16801F00C010C2940F01E81012840F058
:103500008C81012002B0BDE8F081B06800F00C01B0
:10351000F068082954D0032281F00C0122EA00004F
:103520000844B0FA80F040094AD165683068B5F5C2
:10353000A02F00F0C680B5F5803F40F0C98040F470
:103540008030CBE0B068F16800F00C00042864D053
:1035500001F0030180F00C0081F002010844B0FA90
:1035600080F0400959D1E1683068002900F0D1802D
:1035700040F480703060FFF721F805463068400560
:1035800000F1F080FFF71AF8401B0228F6D92AE173
:103590006169D6F89400002900F0818040F00100B4
:1035A000C6F89400FFF70AF8054600BFD6F8940065
:1035B000800792D4FFF702F8401B0228F6D912E1E7
:1035C000306880037FF583AF606800287FF47FAFA9
:1035D00039E0B06D5FEAC00808D4B06D40F08050AB
:1035E000B065B06D00F080500190019847F200077F
:1035F000C4F200073868C00529D4386840F48070E8
:103600003860FEF7DBFF05463868C0051FD4FEF7BB
:10361000D5FF401B0228F7D9E5E03068400501D509
:10362000E06880B17068216920F0FE4040EA0160E6
:10363000706040F20C00C2F200000068FFF792FADE
:1036400000283FF447AF012002B0BDE8F081A56833
:10365000D6F89000052D00F0A280012D40F0A88042
:1036600040F00100ACE0A169D6F89800002900F014
:10367000818040F00100C6F89800FEF79FFF0546E4
:10368000D6F8980080073FF52FAFFEF797FF401B55
:1036900002284FF00300F3D902B0BDE8F08120F01A
:1036A0000100C6F89400FEF789FF0546D6F894009D
:1036B00080077FF512AFFEF781FF401B0228F5D986
:1036C00091E040F480203060306840F4803005E0C4
:1036D00020F480303060306820F480203060FEF7C5
:1036E0006DFF002D054610D0306880033FF5EFAE2A
:1036F000FEF764FF401B6428F6D974E0FEF75EFF16
:10370000401B64284FF00300C6D830688003F5D40E
:10371000DDE620F480703060FEF750FF054600BF04
:10372000306840057FF5D6AEFEF748FF401B022803
:103730004FF00300F4D9AFE73168022821F080711F
:10374000316040F0A680FEF739FF05463068800101
:1037500040F1B980FEF732FF401B02284FF0030012
:10376000F4D999E77068216920F0FE4040EA0160D1
:103770007060AFE620F00100C6F89800FEF71EFF6B
:10378000054600BFD6F8980080077FF5ADAEFEF77E
:1037900015FF401B02284FF00300F3D97CE740F0EF
:1037A0000400C6F89000D6F8900040F0010007E051
:1037B00020F00100C6F89000D6F8900020F0040038
:1037C000C6F89000FEF7FAFE002D054641F2883754
:1037D00016D000BFD6F89000800715D4FEF7EEFE95
:1037E000401BB842F6D9032002B0BDE8F08100BF0B
:1037F000FEF7E4FE401BB8424FF003003FF64CAF2B
:10380000D6F890008007F3D4B8F1000F3FF568AE0A
:10381000B06D20F08050B06562E6F068216A00F07B
:1038200003028A427FF40FAF626A6FF00F0300F069
:10383000F00103EB021291427FF405AFA16A00F49C
:10384000FE42B2EB012F7FF4FEAEE16A00F0784257
:10385000B2EBC16F7FF4F7AE226B0023CFF6E073BB
:1038600003EA025200F4C001A2F5001291427FF473
:10387000EAAE616B4FF07E4202EA016100F0C06087
:1038800001F17E4188427FF4DEAE002002B0BDE847
:10389000F081F0684FF6FF7120F00300F060F068EF
:1038A000CFF6EE610840F060FEF788FE044600BFE8
:1038B00030688001E9D5FEF781FE001B02284FF039
:1038C0000300F5D9E8E6F06848F20C01C0F29F1158
:1038D00004F1200700EA010C8ECF6FF00F00D4E94D
:1038E0000C5400EB02100022CFF6E07241EA0C010A
:1038F00002EA05520843A2F500124FF07E4540EA65
:10390000032005EA0465104305F17E4540EAC760DF
:103910002843F060306840F080703060F06840F01C
:103920008070F060FEF74AFE044600BF30688001F8
:10393000ABD4FEF743FE001B02284FF00300F5D97D
:10394000AAE60000002804BF01207047416A19B1AF
:1039500000210161142104E04168B1F5827F02D0A9
:103960001C2100224250B0B50025856290F85D1000
:1039700029B980F85C50044600F056F82046022130
:1039800080F85D100168D0F80CE00B68BEF5E06FC0
:1039900023F040030B6098BF01254EF40063B3F59C
:1039A000706F4FEA053C1CBF00258562D0E90154C9
:1039B000D0E9043205F4827504F404442C4403F085
:1039C00002032344846902F00102C5691A4404F425
:1039D00000731A4405F03803056A1A4405F08003A1
:1039E000856A1A4405F400531A430A600422436AA4
:1039F0000EF4706502EA1442446B45EA0C0503F0CC
:103A000010032A4304F008041A4322434A60CA6997
:103A100022F40062CA6100210122016680F85D2063
:103A2000BDE8B0400846704780B586B0006843F2F4
:103A30000002C4F2010200219042CDE90411CDE957
:103A40000211019101D006B080BD41F24C00C4F2D8
:103A50000200426942F480524261426902F480529B
:103A60000092009A026842F001020260006800F0D1
:103A7000010000900098E02001900220CDE90201B1
:103A800005200491059001A94FF09040FEF7BAFC83
:103A900006B080BD411E0020B0EB116F1CBF01209D
:103AA00070474EF21002CEF2000251604EF62351E2
:103AB000CEF20001F0230B70072190601160704777
:103AC00070470000704700007047000090F83C20ED
:103AD000012A04BF02207047F0B5012280F83C2083
:103AE000D1E90232D1E900CE22F47C5223F47053A2
:103AF0001A4348F2FF73CFF6F07303EA0E0342EA6B
:103B0000030E0A692CF477234EEA030C22F4762282
:103B10004B6942EA0C021A430B6B22F4742C23F417
:103B200070238A6943EA0C0343EA0243026842F6BF
:103B3000004EC4F2010E45F2000C7245C4F2010CB5
:103B400018BF624525D1CC6923F0805323437245C9
:103B500018BF624524D101F12006002770CECFF6B0
:103B6000F04723F07C7307EA0656334324F00074D1
:103B70002343724543EA050318BF624517D1C96A5A
:103B800023F000530B430021536480F83C100020C5
:103B9000F0BD43F20044C4F20104A242D3D0D6E700
:103BA00043F20044C4F20104A242D4D0EBE743F252
:103BB0000047C4F20107BA42E1D0E4E770470000D1
:103BC000704700007047000090F83C20012A4FF039
:103BD000020266D070B5012380F83C3080F83D20A9
:103BE000026842F6004C54689368C4F2010C45F236
:103BF000000E6245C4F2010E18BF72452AD14D680D
:103C000024F470042C434FF68F75CFF6FF550E68E1
:103C10002C4042F6FF35C4F201053443AA425460F9
:103C20000DDC40F2FF76C4F20006B24219DCB2F1BC
:103C3000804F29D040F20046C4F2000622E043F64D
:103C4000FF74C4F20104A24216DC62451CD043F2A8
:103C5000004615E043F20045C4F20105AA42CED069
:103C6000D1E740F60006C4F20006B2420CD040F69E
:103C70000046C4F2000605E0724505D044F2000695
:103C8000C4F20106B24204D1896823F080031943CB
:103C900091600121002280F83D1080F83C20BDE8B1
:103CA000704010467047000070470000002804BFB5
:103CB0000120704710B5044690F83D0028B9002057
:103CC00084F83C00204600F023F8022084F83D00F0
:103CD0002068211D02F0D8FC012084F8480084F8F7
:103CE0003E0084F83F0084F8400084F8410084F8E6
:103CF000420084F8430084F8440084F8450084F8C6
:103D0000460084F8470084F83D00002010BD000004
:103D100080B584B0006844F20001C4F20101884219
:103D200037D041F20001C4F20001884219D040F6B8
:103D30000041C4F20001884238D141F25800C4F277
:103D400002000168002241F00801016000680021C2
:103D500000F00800039003983220FEF75DFF322048
:103D600012E041F25800C4F202000168002241F062
:103D7000100101600068002100F01000029002981C
:103D80003620FEF749FF362004B0BDE88040FEF73C
:103D900031BF41F25800C4F20200816841F4803121
:103DA0008160806800F480300190019804B080BD8B
:103DB00090F83D1001291BD1022180F83D100168C7
:103DC00042F6FF32C868C4F20102914240F001009D
:103DD000C8600FDC40F2FF70C4F20000814218DCC2
:103DE000B1F1804F2CD040F20040C4F2000025E039
:103DF0000120704743F6FF70C4F20100814213DCDA
:103E000042F60040C4F20100814219D043F2004062
:103E100012E040F60000C4F20000814210D040F6EB
:103E20000040C4F2000009E045F20000C4F20100C5
:103E3000814205D044F20000C4F2010081420CD15D
:103E400088680722C0F201020240062A4FF00000F3
:103E5000CFD0B2F5803F08BF7047086840F001003E
:103E600008600020704700000146006841F211130D
:103E7000C26822F00102C260026A1A4208D1026AD4
:103E800044F244431A4203D1026822F00102026064
:103E90000122002081F83D207047000090F83C206E
:103EA000012A4FF0020200F0998080B5012380F8CA
:103EB0003C3080F83D20D0F800C08822DCF8083083
:103EC000CFF6CE721A40CCF808200B68B3F5005F2D
:103ED0000DDA3F2B21DD5F2B38DD602B00F0A68053
:103EE000702B00F09080B3F5805F6ED0E2E02F225F
:103EF000C0F21002934217DD4F21C0F210018B4235
:103F00004CDD5021C0F210018B4252D06021C0F232
:103F100010018B424DD0702146E01F2B0EDC002B90
:103F200047D0102B45D0C5E0B3F1101F0BDAB3F525
:103F3000005F55D0B3F5801F3BD0BBE0202B38D0BD
:103F4000302B36D0B6E034D020212DE0402B00F0CD
:103F50008F80502B40F0AE80D1F804E0C968DCF8C7
:103F60002030DCF8202022F00102CCF82020DCF800
:103F7000182022F0F00242EA011123F00A0242EA7C
:103F80000E02CCF81810CCF82020DCF808104FF600
:103F90008872CFF6CF721140573114E03021C0F251
:103FA00010018B4205D04021C0F210018B4240F03D
:103FB0008180DCF808104FF68872CFF6CF7211407E
:103FC000194341F00701CCF808100022012180F8C4
:103FD0003D10002180F83C10BDE88040104670473D
:103FE000D1E901E3C968DCF8082043EA0E0322F4B2
:103FF0007F4243EA01211143CCF80810DCF8081095
:1040000041F48041DFE7D1E901E3C968DCF8082029
:1040100043EA0E0322F47F4243EA01211143CCF824
:104020000810DCF8081041F07701CCE7D1F804E083
:10403000C968DCF8203023F01003CCF82030DCF81D
:104040001830DCF8202023F4704322F0A00243EA69
:10405000013142EA0E12CCF81810CCF82020DCF81E
:1040600008104FF68872CFF6CF7211406731AAE779
:10407000D1F804E0C968DCF82030DCF8202022F018
:104080000102CCF82020DCF8182022F0F00242EAED
:10409000011123F00A0242EA0E02CCF81810CCF803
:1040A0002020DCF808104FF68872CFF6CF7211404E
:1040B000473188E7012289E7002804BF01207047C3
:1040C0002DE9F047044690F83D000D4628B9002040
:1040D00084F83C00204600F04BF8022084F83D00B4
:1040E00020684BF6F8728168CFF6FE72114081604D
:1040F000211D02F0C9FA20684FF6FF7881688269B5
:10410000D0F820C0D5E9003ED5E9026A43EA0109AA
:10411000AB6922EA080246EA03234FF6FC46B343A2
:10412000D5E9076742EA0A0229691A4342EA0622E8
:1041300042EA01112CF0AA026B6942EA0E0241EA3E
:10414000073142EA0312C0F808908161026201203F
:1041500084F8480084F83E0084F83F0084F8440066
:1041600084F8450084F83D000020BDE8F087000099
:1041700080B586B0006840F2FF71C4F20001884249
:104180004FF000010591CDE90311CDE9011121DCCA
:10419000B0F1804F5CD040F20041C4F2000188428F
:1041A00040F0A08041F24C00C4F20200C16841F02E
:1041B0000201C160C16801F002010091009901682B
:1041C00041F002010160006800F0020000900098D8
:1041D000302079E040F60001C4F2000188425CD052
:1041E00042F60041C4F2010188427BD141F24C0009
:1041F000C4F20200416941F400614161416901F486
:10420000006100910099016841F0100101600068AF
:10421000002100F01000009000984FF42060019001
:1042200002200290059040F20040C4F60000CDE963
:10423000031100F5406001A9FEF7E4F81A200F21F0
:104240000022FEF7E9FC1A20FEF7D4FC06B080BD80
:1042500041F24C00C4F20200C16841F00101C160AA
:10426000C16801F0010100910099016841F0080165
:1042700001600068002100F00800009000981820FC
:10428000019002200290059040F20040C4F6000028
:10429000CDE9031100F5006021E041F24C00C4F2C9
:1042A0000200C16841F00401C160C16801F004016D
:1042B00000910099016841F002010160006800F07E
:1042C000020000900098C02001900220029005900A
:1042D00040F200400021C4F600000391049101A9BE
:1042E000FEF790F806B080BD80B590F83E2090F8BB
:1042F0003F3090F844E090F845C0042909D099B9BE
:10430000012A4FF0010208BFBEF1010F22D0104672
:1043100080BD012B4FF0010208BFBCF1010FF6D1A7
:10432000022280F83F2012E0012A4FF0010208BF6C
:10433000012BECD1BEF1010FE9D1BCF1010FE6D1A7
:10434000022280F83E2080F83F2080F8442080F848
:10435000452004E0022280F83E2080F844200268D4
:104360000429136A04D031B923F0010101230DE0BF
:1043700023F0100109E023F001011162116A41F0FC
:1043800001011162116A21F0100110231162116AFA
:104390001943116200680022016841F001010160C7
:1043A000104680BD7047000010B5044600680169E2
:1043B000890744BFC1685FEA817167D420680169D9
:1043C000490744BFC1685FEA41716BD42068016945
:1043D000090744BFC1685FEA017170D420680169B0
:1043E000C90644BFC1685FEAC16174D4206801692D
:1043F000C9071CBFC1685FEAC17179D12068016932
:10440000090644BFC1685FEA016178D42068016988
:10441000C90544BFC1685FEA016177D420680169BA
:10442000490644BFC1685FEA416176D420680169EA
:10443000890644BFC1685FEA816175D4206801695B
:10444000C90244BFC1685FEAC12174D42068016910
:10445000890244BFC1685FEA812173D42068016981
:10446000490244BFC1685FEA412172D421680869EA
:10447000000246BFC8685FEA002010BD6FF400026A
:1044800020460A61BDE81040FFF70EBC6FF0020144
:104490000161012121778069800761D02046FFF703
:1044A00081FF63E06FF004010161022121778069DF
:1044B00010F4407F5DD02046FFF774FF5FE06FF09F
:1044C0000801016104212177C06980075AD0204684
:1044D000FFF768FF5CE06FF01001016108212177B0
:1044E000C06910F4407F56D02046FFF75BFF58E0CC
:1044F0006FF001010161204600F050FB7EE76FF094
:10450000800101612046FFF7DDFA7FE76FF48071DB
:1045100001612046FFF7D4FA80E76FF040010161A6
:10452000204600F0B3FB81E76FF0200101612046D7
:10453000FFF7CAFA82E76FF4801101612046FFF7A6
:104540003FFB83E76FF4001101612046FFF736FB64
:1045500084E76FF4800101612046FFF733FB85E7B4
:10456000204600F021F8204600F062FA0020207773
:1045700024E7204600F018F8204600F059FA002001
:10458000207723E7204600F00FF8204600F050FA8D
:104590000020207722E7204600F006F8204600F0B1
:1045A00047FA0020207721E77047000090F83C3060
:1045B000012B04BF022070474FEAB2020123052AF3
:1045C00080F83C3000F2E4812DE9F041DFE812F0A0
:1045D000060044019000EA0053009C0103681A6A37
:1045E000A3F1804622F001021A621D6A1A46D3F82E
:1045F000048052F818CF8F68A6F59636D1F800E0FF
:1046000025F002054FEAB626092E45EA07050BD824
:104610000127B74040F2E52427421FBFCC6825F0B0
:104620000C0524F004042543092E0CD80124B440C1
:1046300040F2E52634421FBFD1E9054628F4407711
:104640003C4344EA06084FF68C74CFF6FE740CEA3D
:10465000040747EA0E07C3F804809F614F680969A1
:104660005F631D629F6947F008079F619F6927F09C
:1046700004079F6186E103681A6AA3F1804722F468
:1046800080321A621A46A7F59637D3F820805D6803
:1046900052F850EFD1F800C08E684FEAB727092FC3
:1046A0000AD80124BC4040F2E5273C421EBF4C69B9
:1046B00025F4803545EA042528F4003444EA06440C
:1046C0004FF68C76CFF6FE7603360EEA060747EAFB
:1046D0000C075D601F654F6809699F641C621F6D50
:1046E00047F008071F651F6D27F004071F6549E1A4
:1046F000036842F600461A6AC4F2010622F4807288
:104700001A621D6A1A46D3F804C052F81CEFB3426D
:104710008E68D1F8008025F4007545EA06250BD097
:1047200045F20006C4F20106B34205D043F200464A
:10473000C4F20106B34207D1CE6840F2FF47360209
:1047400025F44065BE433543A3F18046A6F5963671
:104750004FEAB626092E0DD8012707FA06F640F2D1
:10476000E5273E421FBFD1E905672CF4405437438B
:1047700044EA071C4FF68C74CFF6FE740EEA040769
:1047800047EA0807C3F804C0DF614F680969DF63BF
:104790001D62DF6947F00807DF61DF6927F0040762
:1047A000DF61EFE0036842F600461A6AC4F20106D0
:1047B00022F480521A621D6A1A46D3F804C052F8D5
:1047C0001C8FB3428E68D1F800E025F4005545EA0D
:1047D00006350BD045F20006C4F20106B34205D0FF
:1047E00043F20046C4F20106B34207D1CE6844F654
:1047F000FF77360325F44045BE433543A3F1804699
:10480000A6F596364FEAB626092E0DD8012707FAE7
:1048100006F640F2E5273E421FBFD1E905672CF4BA
:104820004044374344EA871C48F6FF44CFF6FF6410
:1048300004EA080444EA0E27C3F804C0DF614F68A5
:1048400009691F641D62DF6947F40067DF61DF6982
:1048500027F48067DF6194E0036842F600461A6A35
:10486000C4F2010622F010021A621D6A1A465C6840
:1048700052F818CFB3428E68D1F800E025F0200539
:1048800045EA06150BD045F20006C4F20106B34214
:1048900005D043F20046C4F20106B34207D1CE6808
:1048A0006FF0400725F0C00507EA06163543A3F16F
:1048B0008046A6F596364FEAB626092E0DD8012772
:1048C00007FA06F640F2E5273E421FBFD1E9056729
:1048D00024F440643E4344EA860448F6FF46CFF69B
:1048E000FF660CEA060747EA0E275C609F614F6887
:1048F00009699F631D629F6947F400679F619F6913
:1049000027F480679F613CE003681A6AA3F180473F
:1049100022F480121A621A46A7F59637D3F820803F
:104920005D6852F850EFD1F800C08E684FEAB727A3
:10493000092F0AD80124BC4040F2E5273C421EBFA3
:104940004C6925F4802545EA842528F4001444EABE
:10495000065448F6FF46CFF6FF6606F540760EEAA7
:10496000060747EA0C275D601F654F680969DF6429
:104970001C621F6D47F400671F651F6D27F4806779
:104980001F6509021368194300231160BDE8F04157
:10499000002180F83C10184670470000002804BF32
:1049A0000120704710B5044690F83D0028B900205A
:1049B00084F83C00204600F023F8022084F83D00F3
:1049C0002068211D01F060FE012084F8480084F871
:1049D0003E0084F83F0084F8400084F8410084F8E9
:1049E000420084F8430084F8440084F8450084F8C9
:1049F000460084F8470084F83D00002010BD000008
:104A0000006843F20041C4F20101884218BF7047B8
:104A100081B041F26000C4F20200016841F400512B
:104A20000160006800F400500090009801B07047E9
:104A30007047000080B559B10B1F4FEAB30C4322F9
:104A40004FF03F0EBCF1040F38BF0EEBB30200E095
:104A50003E22825C012A1CBF012080BD61B10A1F79
:104A60004FEAB202032A17D8DFE802F002120A0E58
:104A7000022280F83F2012E0022280F83E200EE061
:104A8000022280F841200AE0022280F8422006E05B
:104A9000022280F8402002E0022280F843200268CF
:104AA00001F01F000121136A01FA00F08343136231
:104AB000136A18431062A2F18040A0F596304FEAC5
:104AC000B02342F6FF30072BC4F2010050D89940C2
:104AD00011F0E50F4CD0516C824241F40041516419
:104AE0000DDC40F2FF70C4F20000824216DCB2F12D
:104AF000804F2AD040F20040C4F2000023E043F689
:104B0000FF70C4F20100824213DC42F60040C4F29E
:104B10000100824219D043F2004012E040F600004A
:104B2000C4F20000824210D040F60040C4F20000FF
:104B300009E045F20000C4F20100824205D044F2CF
:104B40000000C4F2010082420CD190680721C0F23B
:104B50000101014006294FF0000008D0B1F5803F67
:104B600008BF80BD106840F001001060002080BDCB
:104B70008242B6DD43F6FF71C4F201018A42C4DD10
:104B800044F20001C4F201018A42DED045F2000184
:104B9000C4F201018A429ED0E4E7000010B540F65D
:104BA0008863C2F2000393F90020D3E90214891844
:104BB00044EBE27240F66014C2F20004A042C3E982
:104BC00002120AD040F6AC11C2F20001884218BFAE
:104BD00010BDBDE8104002F0E5B9D1F1C7004FF0BB
:104BE000000090414FF001000EDB81F032041443CD
:104BF00017D081F06404144312D081F0960414435A
:104C000008BF83F89A010EE081F0C804144307D06E
:104C100081F0FA04144304D081F49670104302D159
:104C2000002083F89A0145F6294CCCF28F2C42F6ED
:104C3000F500A1FB0C34C8F65C7001FB004043F6A4
:104C40007051CDF20A71C91A02FB0C0047F2A301A0
:104C5000C0F63D2171EB000000D210BD41F24004CE
:104C6000C2F20004207840B140F68860C2F2000031
:104C700002F066FA0020207010BD40F68860C2F293
:104C8000000002F0BDFE0120207010BD7047000042
:104C900090F88010012904BF022070472421C0F839
:104CA000841001680A680B6822F0005223F00103A7
:104CB0000B60002343660A602021C0F8841080F84E
:104CC00080300020704700007047000070470000EF
:104CD00090F88020012A04BF02207047B0B501235C
:104CE000242280F88030C0F884200268D0F864E084
:104CF000D2F800C01468BEF1000F24F00104146063
:104D0000946824F0606441EA040191601BD09168CA
:104D1000936848F6B42E5B0FC0F6000E48F6BC252B
:104D20001EF80340C0F60005EB5CE400B4FBF3F3AF
:104D3000C1F34261A0F86A301EF80130695CDB0003
:104D4000B3FBF1F301E0A0F86A302021A0F868304D
:104D5000C2F800C0C0F88410002180F88010002044
:104D6000B0BD000090F88020012A04BF02207047E7
:104D7000B0B50123242280F88030C0F88420026876
:104D8000D0F864E0D2F800C01468BEF1000F24F03F
:104D900001041460946824F0604441EA04019160C5
:104DA0001BD09168936848F6B42E5B0FC0F6000ED6
:104DB00048F6BC251EF80340C0F60005EB5CE40095
:104DC000B4FBF3F3C1F34261A0F86A301EF801307E
:104DD000695CDB00B3FBF1F301E0A0F86A3020214D
:104DE000A0F86830C2F800C0C0F88410002180F834
:104DF00080100020B0BD0000704700007047000028
:104E00007047000070B5046840F62F03E26921681E
:104E1000A6681340202B05D101F0200306F0805531
:104E20005B1938D140F60F0313400CD00123C1F2B7
:104E3000000306EA030C40F22013C0F200430B40CB
:104E400013EB0C032DD1C36ED50616D5012B14D14F
:104E500011F0100311D010212162A168490600F160
:104E6000FA80B0F85C10B0F85E20B0F85E30002B2D
:104E700018BF914240F0478170BDD30240F1C98014
:104E800016F4800300F0C5804FF480112162BDE864
:104E90007040FFF7B3BF016F0029EDD0BDE870404F
:104EA0000847D30718BF11F4807307D0012323628A
:104EB000D0F88C3043F00103C0F88C30930706F033
:104EC000010E0AD5BEF1000F07D002232362D0F8ED
:104ED0008C3043F00403C0F88C3053070AD5BEF180
:104EE000000F07D004232362D0F88C3043F0020374
:104EF000C0F88C3013070CD501F0200353EA0C03E3
:104F000007D008232362D0F88C3043F00803C0F8A0
:104F10008C3013050BD511F0806308D04FF400637B
:104F20002362D0F88C3043F02003C0F88C30D0F8E6
:104F30008C30002BA0D092060AD501F0200106F09B
:104F40008052891804D0016F11B104468847204669
:104F50000168D0F88C20896802F0280201F0400135
:104F6000891807D10446FFF74BFF0020C4F88C00D6
:104F700070BD00BF016851E8001F026821F4907104
:104F800042E80013002BF5D14FF6FE71CEF6FF710B
:104F9000026852E8022F03680A4043E80226002E06
:104FA000F6D1C16E012909D1016851E8001F0268DC
:104FB00021F0100142E80013002BF5D12021C0F8A8
:104FC00088100021C166026801679168490640F1B6
:104FD0008D8000BF016851E8021F026821F0400186
:104FE00042E80213002BF5D1C16F002900F07E804A
:104FF00046F6BD02C0F60002044608468A63FDF785
:105000005BF800283FF438AFE06F816BBDE870407B
:105010000847130606D501F0800306F400069B1925
:1050200040F09F80530665D511F0400362D000BF69
:10503000016851E8001F026821F0400142E80013B6
:10504000002BF5D12021C0F8841000214167BDE874
:10505000704000F057BBC16F09684A6893B2002BDB
:105060003FF40AAFB0F85C60B342BFF405AFA0F8FC
:105070005E200968890633D4016851E8001F026880
:1050800021F4807142E80013002BF5D1016851E84A
:10509000021F026821F0010142E80213002BF5D142
:1050A000016851E8021F026821F0400142E8021342
:1050B000002BF5D12021C0F888100021C16600BF67
:1050C000016851E8001F026821F0100142E8001356
:1050D000002BF5D1C16F04460846FCF7B5FF20460A
:1050E000B0F85C10B0F85E20891A35E0BDE8704079
:1050F000FFF786BE13023BD511F0804338D0BDE8E0
:105100007040FFF779BE891A026852E8002F0368E1
:1051100022F4907243E80026002EF5D14FF6FE727D
:10512000CEF6FF72036853E8023F0668134046E874
:105130000235002DF6D12022C0F888200022C26658
:10514000026700BF026852E8002F036822F01002D5
:1051500043E80026002EF5D189B2BDE87040FFF784
:10516000B3BD416F00293FF487AEBDE870400847EA
:10517000D2017FF581AEB1F1FF3FC8BF70BDBDE880
:105180007040FFF7A3BD0000002804BF0120704756
:10519000B0B582B00446D0F8840028B9002084F865
:1051A0008000204600F056F82420C4F884002068CF
:1051B000016821F001010160204601F087FB10B178
:1051C000012002B0B0BDA06A10B1204601F002FB80
:1051D0002068416821F490414160816821F02A01F2
:1051E0008160016841F0010101600020C4F88C0079
:1051F000FDF7E4F921680546096809070BD56FF04A
:105200007E4C20464FF4001100222B46CDF800C002
:1052100001F0BCFC78B92068006840070ED56FF03B
:105220007E4C20464FF4800100222B46CDF800C072
:1052300001F0ACFC10B1032002B0B0BD2020C4F8D6
:105240008400C4F888000020E06684F8800002B082
:10525000B0BD00002DE9F0479CB0044600201B9033
:10526000CDE91900CDE9170002A85421FBF726F972
:10527000206844F6FF31C4F20001884200F39080B8
:1052800044F20041C4F20001884200F0FC8044F680
:105290000001C4F20001884240F0C5810420029060
:1052A000002602A80596FDF777FD002818BFFCF739
:1052B00065FA41F24C00C4F20200C16840F60007F2
:1052C00041F48021C160C168C4F6000701F4802167
:1052D00001910199016817AD41F010010160016869
:1052E00040F2080801F010010191019901684FF0A6
:1052F000020941F00201016000684FF0070A00F066
:105300000200019001984FF40040179007F50060EB
:105310002946C4F20208CDE918961A96CDF86CA079
:10532000FDF770F84FF48060CDE91709A7F58060AC
:105330002946CDE91966CDF86CA0FDF763F840F277
:10534000286508F15000C2F200051C21802785E87D
:1053500043002846C5E90367C5E90566C5E9076650
:10536000FCF738FF002818BFFCF708FAE567AC62C5
:1053700040F2886508F16400C2F200051D21102288
:10538000002385E88F002846C5E90533C5E90733C2
:10539000FCF720FF00284FF0270640F0D38038E1CB
:1053A00043F60001C4F20101884200F0CE8044F6C9
:1053B0000041C4F20001884240F03581082002908B
:1053C000002602A80696FDF7E7FC002818BFFCF7A8
:1053D000D5F941F24C00C4F20200C16840F208085D
:1053E00041F40021C160C168C4F2020801F4002147
:1053F00001910199016841F004010160006817A959
:1054000000F00400019001984FF4406017900220D2
:10541000CDE9180605201B9040F60000C4F60000F8
:105420001A96FCF7EFFF40F2E83508F17800C2F277
:1054300000051E21802785E843002846C5E903674B
:10544000C5E90566C5E90766FCF7C4FE002818BF74
:10545000FCF794F9E567AC6240F2484508F18C002E
:10546000C2F200051F211022002385E88F00284684
:10547000C5E90533C5E90733FCF7ACFE00284FF05A
:1054800034065FD1C5E00225002602A802950496E5
:10549000FDF782FC002818BFFCF770F941F24C00C0
:1054A000C4F20200C16840F2080841F40031C16052
:1054B000C168C4F2020801F4003101910199016848
:1054C00041F001010160006817A900F0010001909E
:1054D00001980C2061C107201B9017A94FF0904044
:1054E0001A96FCF78FFF40F2685508F12800C2F2C7
:1054F00000051A21802785E843002846C5E903678F
:10550000C5E90566C5E90766FCF764FE002818BF13
:10551000FCF734F9E567AC6240F2C85508F13C008D
:10552000C2F200051B211022002385E88F002846C7
:10553000C5E90533C5E90733FCF74CFE00284FF0F9
:10554000260666D0FCF71AF963E0012002900026D7
:1055500002A80396FDF720FC002818BFFCF70EF9FF
:1055600041F24C00C4F20200416940F2080841F4E3
:10557000804141614169C4F2020801F48041019116
:105580000199016841F004010160006817A900F069
:10559000040001900198302017900220CDE91806F0
:1055A00007201B9040F60000C4F600001A96FCF796
:1055B00029FF40F2A845C2F2000518208027C5E95E
:1055C00000802846C5E90266C5E90476C5E9066695
:1055D0002E62FCF7FFFD002818BFFCF7CFF8E56747
:1055E000AC6240F2085508F11400C2F2000519211E
:1055F0001022002385E88F002846C5E90533C5E958
:105600000733FCF7E7FD00284FF0250618BFFCF72D
:10561000B5F8304600210022A567AC62FDF7FCFA20
:105620003046FDF7E7FA1CB0BDE8F0872DE9F04100
:1056300082B00446D0F8840020280DD10F460029FE
:105640004FF0010018BF002A02D102B0BDE8F0817E
:1056500094F88000012803D1022002B0BDE8F08157
:10566000012084F880000020C4F88C0021201D4611
:10567000C4F884001646FCF7A1FFA4F85460A4F80F
:105680005660A1688046B1F5805F01D12069B0B352
:105690003E460027002084F8800008E016F8010B41
:1056A00021688862B4F856000138A4F85600B4F8AE
:1056B000560088B12046802100224346009501F023
:1056C00065FA88B9002EE9D137F8020B21686FF32B
:1056D0005F2088620026E5E72046402100224346FD
:1056E000009501F053FA18B1032002B0BDE8F08133
:1056F0002020C4F88400002002B0BDE8F08100261C
:10570000C8E7000070470000FEE7000040F2E860D4
:10571000C2F20000FCF7A2BF2DE9F0470446006882
:1057200016468369DA0602D40021002054E0894637
:105730001021C16120688169890642D4002709F1DE
:1057400001084FF0200A002506E000BF20688169AB
:1057500001F02001294336D1B8F1000FF6D0FCF753
:105760002DFFB9F1000F02D0801B4845EED920680B
:10577000426894F8421083691B041DD512F48042DC
:105780001AD1202918D0416841F480414160FCF7CA
:1057900015FF064610E000BFFCF710FF801B1A281B
:1057A0000AD3606C012540F02000606484F841A0B9
:1057B00084F8427084F84070206880698006EBD5D8
:1057C000C4E7012102E0B5FA85F1490900291CBFAF
:1057D0002021C1610120042122689369DF052DD4B5
:1057E0005F0533D49B0505D54FF4007041F00201ED
:1057F000D0610120002808BFBDE8F08793699B07AE
:1058000044BF002393629369DB0703D1936943F09C
:105810000103936153684EF60007CFF600673B40E3
:105820005360626C11436164202184F841100021AF
:1058300084F8421084F84010BDE8F0874FF480707F
:1058400041F00101D06101205F05CBD54FF48060AC
:105850000831D06101209B05C6D4CBE72DE9F04388
:1058600081B004469946D8B223686FF39F2141EA7C
:105870000040596849F60007CFF600473940084410
:1058800000F5005058609869099D089E8007904671
:1058900016D4771C04E000BF2068806980070FD40D
:1058A000204631462A46FFF737FF00284AD1002F0D
:1058B000F2D0FCF783FECEB3401BB042ECD935E00A
:1058C0002068B9F1010F1BD04FEA1821816280696D
:1058D000800714D4771C03E02068806980070ED409
:1058E000204631462A46FFF717FF58BB002FF3D05A
:1058F000FCF764FED6B1401BB042EDD916E020683B
:105900005FFA88F181622068806940061ED4771CA6
:1059100004E000BF20688069400617D4002FF9D04A
:10592000FCF74CFE16B1401BB042F3D9606C40F05E
:1059300020006064202084F84100002084F84200A8
:1059400084F84000012001B0BDE8F083002001B0E0
:10595000BDE8F08370B515460E46044620688069A0
:10596000800619D4204631462A46FFF7D5FE88B96D
:10597000FCF724FE16B1401BB042EFD9606C40F03A
:1059800020006064202084F84100002084F8420058
:1059900084F84000012070BD002070BD10B58CB0AF
:1059A00040F29C1040F20041C2F20000C5F200013A
:1059B00000244FF44032042380E8160001210B94A8
:1059C000CDE90944CDE90744CDE90544CDE90344D7
:1059D000CDE90144C0E90344C0E905438483016281
:1059E00080F82440C0E90B4480F83840C46380F854
:1059F0004040FCF719F9002818BFFBF7BFFE40F242
:105A00009C10C2F2000009A90994FBF7BDFE002812
:105A100018BFFBF7B3FE40F60000C2F630600190FD
:105A200006207F2102900020049104210390CDE9FB
:105A3000051040F29C10C2F2000001A9FBF73EFFE6
:105A4000002818BFFBF79AFE0CB010BD80B584B0DB
:105A500041F24800C4F202000168002241F0040152
:105A60000160016801F0040103910399016841F0AC
:105A700001010160016801F00101029102990168D0
:105A800041F0020101600068002100F00200019075
:105A900001980B20FDF7C0F80B20FDF7ABF80C20A8
:105AA00000210022FDF7B8F80C20FDF7A3F80D2027
:105AB00000210022FDF7B0F80D20FDF79BF80E2025
:105AC00000210022FDF7A8F80E20FDF793F80F2023
:105AD00000210022FDF7A0F80F20FDF78BF8102021
